:020000040800F2
:100000000000022011B20008D11A0008D31A00081B
:10001000D51A0008D71A0008D91A000800000000F5
:1000200000000000000000000000000081740008D3
:10003000DB1A000800000000217500085570000858
:1000400061B2000861B2000861B2000861B2000844
:1000500061B2000861B2000861B2000861B2000834
:1000600061B2000861B2000861B2000861B2000824
:1000700061B2000861B2000861B2000861B2000814
:1000800061B2000861B2000861B20008DD1A000820
:10009000ED1A0008FD1A00080D1B000861B20008E7
:1000A00061B2000861B2000861B2000861B20008E4
:1000B00061B2000861B2000861B2000861B20008D4
:1000C00061B2000861B2000861B2000861B20008C4
:1000D00061B2000861B2000861B2000861B20008B4
:1000E00061B2000861B2000861B2000861B20008A4
:1000F00061B2000861B2000861B2000861B2000894
:1001000061B2000861B2000861B200081D1B00085E
:1001100061B2000861B200082D1B000861B200083E
:1001200061B2000861B2000861B2000861B2000863
:1001300061B20008000000000000000061B2000889
:1001400061B2000861B2000861B200083D1B0008FE
:1001500061B2000861B2000861B2000861B2000833
:1001600061B2000861B2000861B2000861B2000823
:1001700061B2000861B20008000000000000000049
:0801800061B2000861B2000841
:1001C00081F0004102E000BF83F0004330B54FEA08
:1001D00041044FEA430594EA050F08BF90EA020F75
:1001E0001FBF54EA000C55EA020C7FEA645C7FEA08
:1001F000655C00F0E2804FEA5454D4EB5555B8BF2B
:100200006D420CDD2C4480EA020281EA030382EA9B
:10021000000083EA010180EA020281EA0303362D2D
:1002200088BF30BD11F0004F4FEA01314FF4801C00
:100230004CEA113102D0404261EB410113F0004F12
:100240004FEA03334CEA133302D0524263EB4303C9
:1002500094EA050F00F0A780A4F10104D5F1200E67
:100260000DDB02FA0EFC22FA05F2801841F10001C2
:1002700003FA0EF2801843FA05F359410EE0A5F196
:1002800020050EF1200E012A03FA0EFC28BF4CF0C7
:10029000020C43FA05F3C01851EBE37101F000457D
:1002A00007D54FF0000EDCF1000C7EEB00006EEB8A
:1002B0000101B1F5801F1BD3B1F5001F0CD3490814
:1002C0005FEA30004FEA3C0C04F101044FEA44526B
:1002D00012F5800F80F09A80BCF1004F08BF5FEAF2
:1002E000500C50F1000041EB045141EA050130BDD2
:1002F0005FEA4C0C404141EB0101013C28BFB1F5E4
:10030000801FE9D291F0000F04BF01460020B1FA2E
:1003100081F308BF2033A3F10B03B3F120020CDA01
:100320000C3208DD02F1140CC2F10C0201FA0CF0DF
:1003300021FA02F10CE002F11402D8BFC2F1200C44
:1003400001FA02F120FA0CFCDCBF41EA0C019040FA
:10035000E41AA2BF01EB0451294330BD6FEA040443
:100360001F3C1CDA0C340EDC04F11404C4F120022E
:1003700020FA04F001FA02F340EA030021FA04F340
:1003800045EA030130BDC4F10C04C4F1200220FA97
:1003900002F001FA04F340EA0300294630BD21FAD5
:1003A00004F0294630BD94F0000F83F4801306BF9B
:1003B00081F480110134013D4EE77FEA645C18BF8F
:1003C0007FEA655C29D094EA050F08BF90EA020F26
:1003D00005D054EA000C04BF1946104630BD91EA1E
:1003E000030F1EBF0021002030BD5FEA545C05D121
:1003F0004000494128BF41F0004130BD14F5800460
:100400003CBF01F5801130BD01F0004545F0FE41D3
:1004100041F470014FF0000030BD7FEA645C1ABF08
:10042000194610467FEA655C1CBF0B46024650EA3F
:10043000013406BF52EA033591EA030F41F400216B
:1004400030BD00BF90F0000F04BF0021704730B5F1
:100450004FF4806404F132044FF000054FF00001C6
:1004600050E700BF90F0000F04BF0021704730B587
:100470004FF4806404F1320410F0004548BF40425C
:100480004FF000013EE700BF42004FEAE2014FEAB1
:1004900031014FEA02701FBF12F07F4393F07F4F8C
:1004A00081F06051704732F07F4208BF704793F08F
:1004B0007F4F04BF41F40021704730B54FF46074A2
:1004C00001F0004521F000411CE700BF50EA0102A5
:1004D00008BF704730B54FF000050AE050EA01024E
:1004E00008BF704730B511F0004502D5404261EBBE
:1004F00041014FF4806404F132045FEA915C3FF4FF
:10050000D8AE4FF003025FEADC0C18BF03325FEA9B
:10051000DC0C18BF033202EBDC02C2F1200300FA4C
:1005200003FC20FA02F001FA03FE40EA0E0021FA71
:1005300002F11444BDE600BF70B54FF0FF0C4CF45F
:10054000E06C1CEA11541DBF1CEA135594EA0C0F11
:1005500095EA0C0F00F0DEF82C4481EA030621EA4C
:100560004C5123EA4C5350EA013518BF52EA033587
:1005700041F4801143F4801338D0A0FB02CE4FF039
:100580000005E1FB02E506F00042E0FB03E54FF069
:100590000006E1FB03569CF0000F18BF4EF0010E61
:1005A000A4F1FF04B6F5007F64F5407404D25FEA5D
:1005B0004E0E6D4146EB060642EAC62141EA555110
:1005C0004FEAC52040EA5E504FEACE2EB4F1FD0C52
:1005D00088BFBCF5E06F1ED8BEF1004F08BF5FEAD0
:1005E000500E50F1000041EB045170BD06F0004682
:1005F00046EA010140EA020081EA0301B4EB5C042F
:10060000C2BFD4EB0C0541EA045170BD41F4801126
:100610004FF0000E013C00F3AB8014F1360FDEBF4B
:10062000002001F0004170BDC4F10004203C35DA27
:100630000C341BDC04F11404C4F1200500FA05F3AA
:1006400020FA04F001FA05F240EA020001F000424B
:1006500021F0004110EBD37021FA04F642EB0601C1
:100660005EEA430E08BF20EAD37070BDC4F10C04EB
:10067000C4F1200500FA04F320FA05F001FA04F2AF
:1006800040EA020001F0004110EBD37041F100019B
:100690005EEA430E08BF20EAD37070BDC4F12005A6
:1006A00000FA05F24EEA020E20FA04F301FA05F20E
:1006B00043EA020321FA04F001F0004121FA04F2B6
:1006C00020EA020000EBD3705EEA430E08BF20EA86
:1006D000D37070BD94F0000F0FD101F000464000C0
:1006E00041EB010111F4801F08BF013CF7D041EA42
:1006F000060195F0000F18BF704703F00046520046
:1007000043EB030313F4801F08BF013DF7D043EA16
:100710000603704794EA0C0F0CEA135518BF95EACC
:100720000C0F0CD050EA410618BF52EA4306D1D153
:1007300081EA030101F000414FF0000070BD50EA72
:10074000410606BF1046194652EA430619D094EAFC
:100750000C0F02D150EA013613D195EA0C0F05D1E6
:1007600052EA03361CBF104619460AD181EA03013A
:1007700001F0004141F0FE4141F470014FF00000F2
:1007800070BD41F0FE4141F4780170BD70B54FF08D
:10079000FF0C4CF4E06C1CEA11541DBF1CEA13550D
:1007A00094EA0C0F95EA0C0F00F0A7F8A4EB0504EF
:1007B00081EA030E52EA03354FEA013100F08880E6
:1007C0004FEA03334FF0805545EA131343EA1263AF
:1007D0004FEA022245EA111545EA10654FEA002664
:1007E0000EF000419D4208BF964244F1FD0404F51D
:1007F000407402D25B084FEA3202B61A65EB030579
:100800005B084FEA32024FF480104FF4002CB6EB35
:10081000020E75EB030E22BFB61A754640EA0C00B5
:100820005B084FEA3202B6EB020E75EB030E22BFF5
:10083000B61A754640EA5C005B084FEA3202B6EB36
:10084000020E75EB030E22BFB61A754640EA9C00F5
:100850005B084FEA3202B6EB020E75EB030E22BFC5
:10086000B61A754640EADC0055EA060E18D04FEA83
:10087000051545EA16754FEA06164FEAC30343EA23
:1008800052734FEAC2025FEA1C1CC0D111F4801FF0
:100890000BD141EA00014FF000004FF0004CB6E7E9
:1008A00011F4801F04BF01430020B4F1FD0C88BF88
:1008B000BCF5E06F3FF6AFAEB5EB030C04BFB6EB93
:1008C000020C5FEA500C50F1000041EB045170BD86
:1008D0000EF0004E4EEA113114EB5C04C2BFD4EBB3
:1008E0000C0541EA045170BD41F480114FF0000E37
:1008F000013C90E645EA060E8DE60CEA135594EAB3
:100900000C0F08BF95EA0C0F3FF43BAF94EA0C0FB5
:100910000AD150EA01347FF434AF95EA0C0F7FF42A
:1009200025AF104619462CE795EA0C0F06D152EA7E
:1009300003353FF4FDAE1046194622E750EA410662
:1009400018BF52EA43067FF4C5AE50EA41047FF473
:100950000DAF52EA43057FF4EBAE12E74FF0FF3CD8
:1009600006E000BF4FF0010C02E000BF4FF0010CA9
:100970004DF804CD4FEA410C7FEA6C5C4FEA430C22
:1009800018BF7FEA6C5C1BD001B050EA410C0CBF71
:1009900052EA430C91EA030F02BF90EA020F0020D3
:1009A000704710F1000F91EA030F58BF994208BF3A
:1009B00090422CBFD8176FEAE37040F001007047F7
:1009C0004FEA410C7FEA6C5C02D150EA013C07D14E
:1009D0004FEA430C7FEA6C5CD6D152EA033CD3D099
:1009E0005DF8040B704700BF8446104662468C4693
:1009F0001946634600E000BF01B5FFF7B7FF0028C6
:100A000048BF10F1000F01BD4DF808EDFFF7F4FFEE
:100A10000CBF012000205DF808FB00BF4DF808ED79
:100A2000FFF7EAFF34BF012000205DF808FB00BF9C
:100A30004DF808EDFFF7E0FF94BF012000205DF8BE
:100A400008FB00BF4DF808EDFFF7CEFF94BF012073
:100A500000205DF808FB00BF4DF808EDFFF7C4FF6C
:100A600034BF012000205DF808FB00BF4FEA410CB5
:100A70007FEA6C5C02D150EA013C0AD14FEA430C98
:100A80007FEA6C5C02D152EA033C02D14FF00000D5
:100A900070474FF0010070474A0011D212F5001262
:100AA00011D20DD56FF47873B3EB62520ED44FEAC6
:100AB000C12343F0004343EA505323FA02F0704746
:100AC0004FF00000704750EA013002D14FF0FF3084
:100AD00070474FF0000070474FEA4102B2F1E04327
:100AE00024BFB3F5001CDCF1FE5C0DD901F0004C15
:100AF0004FEAC0024CEA5070B2F1004F40EB830065
:100B000008BF20F00100704711F0804F21D113F190
:100B10003872BCBF01F00040704741F480114FEAC9
:100B20005252C2F11802C2F1200C10FA0CF320FA52
:100B300002F018BF40F001004FEAC1234FEAD3236F
:100B400003FA0CFC40EA0C0023FA02F34FEA4303D9
:100B5000CCE77FEA625307D150EA01331EBF4FF062
:100B6000FE4040F44000704701F0004040F0FE407D
:100B700040F40000704700BF53B94AB9002908BFCC
:100B800000281CBF4FF0FF314FF0FF3000F0E2B8FB
:100B9000ADF1080C6DE904CE0BF022FCDDF804E0A9
:100BA000DDE9022304B0704700F1340191E8380018
:100BB0009C46A6464CF8045D90E8FF0FE54600BD54
:100BC00090EC210B704700BF80EC210B704700BFF9
:100BD00090EC200B704700BF80EC200B704700BFEB
:100BE000D0EC200B704700BFC0EC200B704700BF5B
:100BF000F0EC0201F0EC0211F0EC0221F0EC023119
:100C0000F0EC0241F0EC0251F0EC0261F0EC027108
:100C1000F0EC0281F0EC0291F0EC02A1F0EC02B1F8
:100C2000F0EC02C1F0EC02D1F0EC02E1F0EC02F1E8
:100C3000704700BFE0EC0201E0EC0211E0EC0221A1
:100C4000E0EC0231E0EC0241E0EC0251E0EC026148
:100C5000E0EC0271E0EC0281E0EC0291E0EC02A138
:100C6000E0EC02B1E0EC02C1E0EC02D1E0EC02E128
:100C7000E0EC02F1704700BFB0FC0181B0FC0191D3
:100C8000B0FC01A1B0FC01B1704700BFA0FC018124
:100C9000A0FC0191A0FC01A1A0FC01B1704700BF24
:100CA000EC4600B52DE900502DE9FF1F4FF0000381
:100CB0002DE90C0001A90BF045FEDDF840E012B073
:100CC000704700BFEC4600B52DE900502DE9FF1F2D
:100CD0004FF000032DE90C0001A90BF06FFEDDF8C9
:100CE00040E012B0704700BFEC4600B52DE900505F
:100CF0002DE9FF1F4FF000032DE90C0001A90BF0B7
:100D00007DFEDDF840E012B0704700BFEC4600B554
:100D10002DE900502DE9FF1F4FF000032DE90C00D5
:100D200001AB0BF043FEDDF840E012B0704700BFAE
:100D3000EC4600B52DE900502DE9FF1F4FF00003F0
:100D40002DE90C0001AA0BF0B1FEDDF840E012B075
:100D5000704700BF704700BF0000000000000000A7
:100D600001F0FF01102A2BDB10F0070F08D010F85C
:100D7000013B013A8B422DD010F0070F42B3F6D160
:100D8000F0B441EA012141EA014122F007047FF079
:100D900000070023F0E80256083C85EA010586EAD0
:100DA000010685FA47F5A3FA87F586FA47F6A5FA0C
:100DB00087F68EB9EED1F0BC01F0FF0102F0070218
:100DC00032B110F8013B013A83EA010313B1F8D1C3
:100DD0000020704701387047002D06BF35460338A4
:100DE000073815F0010F07D1013015F4807F02BFDD
:100DF000013015F4C03F0130F0BC0138704700BF2E
:100E0000844641EA000313F003036DD1403A41D315
:100E100051F8043B40F8043B51F8043B40F8043BD4
:100E200051F8043B40F8043B51F8043B40F8043BC4
:100E300051F8043B40F8043B51F8043B40F8043BB4
:100E400051F8043B40F8043B51F8043B40F8043BA4
:100E500051F8043B40F8043B51F8043B40F8043B94
:100E600051F8043B40F8043B51F8043B40F8043B84
:100E700051F8043B40F8043B51F8043B40F8043B74
:100E800051F8043B40F8043B51F8043B40F8043B64
:100E9000403ABDD2303211D351F8043B40F8043B04
:100EA00051F8043B40F8043B51F8043B40F8043B44
:100EB00051F8043B40F8043B103AEDD20C3205D314
:100EC00051F8043B40F8043B043AF9D2043208D00C
:100ED000D2071CBF11F8013B00F8013B01D30B887E
:100EE00003806046704700BF082A13D38B078DD05C
:100EF00010F003038AD0C3F10403D21ADB071CBF2E
:100F000011F8013B00F8013B80D331F8023B20F897
:100F1000023B7BE7043AD9D3013A11F8013B00F8D0
:100F2000013BF9D20B7803704B7843708B78837058
:100F30006046704700000000000000000000000054
:100F400030B490F800F020F007016FF0000C10F0C2
:100F5000070491F820F040F048804FF000046FF053
:100F60000700D1E9002391F840F000F1080082FA6F
:100F70004CF2A4FA8CF283FA4CF3A2FA8CF34BBB3A
:100F8000D1E9022382FA4CF200F10800A4FA8CF2B3
:100F900083FA4CF3A2FA8CF3E3B9D1E9042382FA81
:100FA0004CF200F10800A4FA8CF283FA4CF3A2FA96
:100FB0008CF37BB9D1E9062301F1200182FA4CF2CE
:100FC00000F10800A4FA8CF283FA4CF3A2FA8CF335
:100FD000002BC6D0002A04BF04301A4612BAB2FA57
:100FE00082F200EBD20030BC7047D1E9002304F05C
:100FF0000305C4F100004FEAC50514F0040F91F891
:1010000040F00CFA05F562EA05021CBF63EA05032D
:1010100062464FF00004AAE74FEA410212F50012BF
:1010200015D211D56FF47873B3EB625212D94FEA2F
:10103000C12343F0004343EA505311F0004F23FA19
:1010400002F018BF404270474FF00000704750EA6E
:10105000013005D111F0004008BF6FF0004070472B
:101060004FF00000704700BF0348044B834202D09A
:10107000034B03B118477047CC080020CC08002070
:10108000000000000548064B1B1AD90F01EBA30115
:10109000491002D0034B03B118477047CC08002019
:1010A000CC0800200000000010B5064C237843B99E
:1010B000FFF7DAFF044B13B10448AFF300800123BC
:1010C000237010BDCC080020000000005C55010812
:1010D00008B5054B1BB105490548AFF30080BDE8D5
:1010E0000840FFF7CFBF00BF00000000D00800207D
:1010F0005C55010800B585B000230093019302936D
:1011000003931548154A02604FF4803242608360B1
:1011100001220261027680F82030C36210498162A8
:10112000C360C26180F83030426100F09FFE68B950
:10113000102300930123019302230293694606487A
:1011400000F0C0FE28B905B05DF804FB00F014FB08
:10115000EEE700F011FBF6E7E80800200020014070
:101160000100000F0268094B9A4200D0704782B01C
:1011700000230193064B5A6C42F480725A645B6CF4
:1011800003F480730193019B02B07047002001407B
:101190000038024008B50E480E4B03600723436039
:1011A00000238360C3604FF4003202614FF4801269
:1011B00042610376437601228276C37603774277D3
:1011C00000F04AFF00B908BD00F0D6FAFBE700BF07
:1011D00030090020006400402DE9F04188B0002370
:1011E0000393049305930693079302682D4B9A4249
:1011F00002D008B0BDE8F0810024019403F5EA3381
:101200001A6C42F000721A641A6C02F000720192B9
:10121000019A02941A6B42F002021A631B6B03F0EC
:1012200002030293029B4FF4807303934FF0020872
:10123000CDF810800123059303270697092607960A
:10124000194D03A9284601F057FB4FF4007303938F
:10125000CDF8108005940697079603A9284601F05B
:101260004BFB22460521132001F006FB132001F061
:1012700013FB22460521142001F0FEFA142001F090
:101280000BFB22460521152001F0F6FA152001F08E
:1012900003FB22460521162001F0EEFA162001F08C
:1012A000FBFAA6E7006400400004024010B58AB0D3
:1012B000EC46104C0FCCACE80F000FCCACE80F00A4
:1012C00094E803008CE8030069460B4800F06AFFCD
:1012D00050B9094C204601F001F80849204601F0B8
:1012E0004EF920B90AB010BD00F046FAF1E700F05F
:1012F00043FAF7E778550108300900207F8F030093
:1013000008B50268044B9A4200D008BD034B186828
:1013100005F0D3FFF9E700BF00640040780B002020
:1013200008B50021FFF7ECFF08BD08B50121FFF764
:10133000E7FF08BD08B50221FFF7E2FF08BD7047CF
:10134000704770477047704770477047704782B06A
:10135000436A0193019B436A13F4006F2AD0026829
:10136000D2F8803143F00103C2F88031436A23F49C
:1013700000634362436A13F4005F2CD00268D2F822
:10138000903143F00103C2F89031436A23F40053D3
:101390004362436A13F4004F2ED00268D2F8A031A2
:1013A00043F00103C2F8A031436A23F400434362CF
:1013B00002B07047436A13F4805FDBD0436A23F0C6
:1013C00001034362436A23F020034362436A23F428
:1013D00080534362CEE7436A13F4804FD9D0436A07
:1013E00023F001034362436A23F020034362436A0C
:1013F00023F480434362CCE7436A13F4803FD7D0A1
:10140000436A23F001034362436A23F020034362EB
:10141000436A23F480334362CAE7000038B50446C8
:101420000D464FF0FF31064B186805F012FF00B172
:1014300038BD044B2A462146034800F07DFFF7E7FC
:10144000780B0020EC0A00203009002010B5134B67
:10145000134A002100F0EEFF58B9124BAA221A706D
:101460008822DA720E4A1168C1F347125A70302A84
:1014700000D910BD0C4A93690133936101F01F013B
:10148000084CA170064B1A690449E01CFFF7B8FC30
:1014900094E80E00054809F0A1FCEAE7F00A0020F4
:1014A000000B0020580900209C350120280A00204C
:1014B00008B50548054B036001F0FCF900B908BD0B
:1014C00000F05AF9FBE700BF1C0B0020003002407F
:1014D0000268094B9A4200D0704782B00023019302
:1014E000064B1A6B42F480521A631B6B03F4805351
:1014F0000193019B02B07047003002400038024067
:1015000008B508F093FD09F0F9FB024B186807F0E5
:10151000A7F908BD740B002000B585B00A4BEC4656
:101520000FCB8CE80F0062460121084605F038FE1B
:10153000064B1860064A0021064805F0C5FD064B1B
:10154000186005B05DF804FBA0550108780B002079
:10155000BC55010801150008740B00202DE9F04767
:101560008AB0002405940694079408940994019481
:10157000434B1A6B42F004021A631A6B02F0040226
:101580000192019A02941A6B42F080021A631A6B5C
:1015900002F080020292029A03941A6B42F0010256
:1015A0001A631A6B02F001020392039A04941A6BF5
:1015B00042F002021A631B6B03F002030493049BC4
:1015C000DFF8C88022464FF40041404601F08AFA15
:1015D0002C4F22465C21384601F084FA2A4E2246DE
:1015E0000921304601F07EFA4FF4004305930125AE
:1015F00006950794089405A9404601F07DF9042357
:10160000059306954FF00209CDF81C90089405A9A2
:10161000384601F071F94FF00808CDF814800695AE
:1016200007954FF0030ACDF820A005A9384601F030
:1016300063F95023059306950795089405A9384644
:1016400001F05AF9059506950795CDF820A005A952
:10165000304601F051F9CDF814900694079505A98C
:10166000304601F049F9CDF81480069507950894A5
:1016700005A9304601F040F90AB0BDE8F08700BF87
:10168000003802400000024000040240000802400E
:1016900008B50B480B4B03600B4B43600023836082
:1016A000C3604FF48042026143618361C36103629E
:1016B00001F03EFC00B908BD00F05EF8FBE700BF9A
:1016C0007C0B002000580040A086010030B589B096
:1016D0000023039304930593069307930268154B25
:1016E0009A4201D009B030BD00250195124C236B00
:1016F00043F002032363236B03F002030193019B76
:101700004FF44063039312230493012305930323AF
:1017100006930423079303A9084801F0EDF8029506
:10172000236C43F480032364236C03F4800302934B
:10173000029BD7E7005800400038024000040240F6
:1017400000B583B001904FF6FF73012201A9034851
:1017500003F0A7FF019803B05DF804FBCC0C002058
:1017600008B50268034B9A4200D008BD00F0BEFAEB
:10177000FBE700BF0010004072B6FEE700B595B071
:101780003022002108A80FF013FD002303930493D7
:101790000593069307930193204A116C41F0805101
:1017A0001164126C02F080520192019A02931C4B58
:1017B0001A6842F480421A601B6803F48043029363
:1017C000029B012308934FF48033099302230E9365
:1017D0004FF480020F9204221092A82211921293C9
:1017E0000723139308A802F051FC98B90F23039321
:1017F00002230493002305934FF4A05306934FF460
:1018000080530793052103A802F0AAFE20B915B062
:101810005DF804FBFFF7B0FFFFF7AEFF00380240B2
:101820000070004008B500F047FA02F08DFFFFF7A6
:10183000A5FFFFF793FEFFF7ADFC00F0E9F900F01C
:1018400033F8FFF757FC00F00BF8FFF721FFFFF725
:101850002FFE05F00BFCFFF75FFE05F019FCFEE71D
:1018600008B50F480F4B03604FF4827343600023A9
:101870008360C36002220261012242614FF4007260
:1018800082610822C2610362436283620A23C362E7
:1018900003F0D6F800B908BDFFF76EFFFBE700BF05
:1018A000280C00200030014008B50D480D4B0360A6
:1018B0004FF48273436000238360C360036143611C
:1018C0004FF400728261C3610362436283620A2340
:1018D000C36203F0B5F800B908BDFFF74DFFFBE7A1
:1018E000D00B0020003C0040F0B58DB000230793E2
:1018F000089309930A930B9303683F4A934204D0D9
:101900003E4A934238D00DB0F0BD002401943C4BC8
:101910005A6C42F480525A645A6C02F4805201921A
:10192000019A02941A6B42F001021A631A6B02F0D8
:1019300001020292029A03941A6B42F002021A63A5
:101940001B6B03F002030393039BA023079302275F
:10195000089703260A9605250B9507A9294800F044
:10196000CBFF10230793089709940A960B9507A9B4
:10197000254800F0C1FFC6E700240494204B1A6CF0
:1019800042F400421A641A6C02F400420492049A6F
:1019900005941A6B42F004021A631A6B02F00402F7
:1019A0000592059A06941A6B42F002021A631B6BA9
:1019B00003F002030693069B4FF44063079302274C
:1019C000089703260A9606250B9507A90F4800F0ED
:1019D00093FF20230793089709940A960B9507A96C
:1019E000094800F089FF22460521332000F044FF1A
:1019F000332000F051FF86E700300140003C0040FA
:101A0000003802400000024000040240000802408A
:101A100000B583B0002200920D4B596C41F4804117
:101A20005964596C01F48041009100990192196C3C
:101A300041F0805119641B6C03F080530193019BAA
:101A40000F216FF0010000F017FF03B05DF804FBF9
:101A50000038024010B588B001460022362000F060
:101A60000BFF362000F018FF00240194144B1A6C71
:101A700042F010021A641B6C03F010030193019BE7
:101A800002A903A802F042FE02F020FE43000D4A24
:101A9000A2FB03239B0C013B0B480C4A026040F263
:101AA000E732C26043600461846003F0E1FC10B17E
:101AB000012008B010BD044803F070FBF9E700BF37
:101AC0000038024083DE1B43800C002000100040E1
:101AD000FEE7FEE7FEE7FEE7FEE7704708B50248CF
:101AE00000F05FFD08BD00BF3009002008B50248C6
:101AF00000F057FD08BD00BF3009002008B50248BE
:101B000000F04FFD08BD00BF3009002008B50248B5
:101B100000F047FD08BD00BF3009002008B50248AD
:101B200003F0A6FA08BD00BFD00B002008B502489C
:101B300003F07CFB08BD00BF800C002008B5024804
:101B400001F0C6FE08BD00BF7C31012001207047B6
:101B500008B50FF013FC162303604FF0FF3008BDEB
:101B600008B54FF0FF31FFF7F3FFFEE770B50C4605
:101B70001646002506E0AFF30080214601F8010B70
:101B800001350C46B542F6DB304670BD70B50C46EB
:101B90001646002504E014F8010BFFF7D1FD0135CE
:101BA000B542F8DB304670BD08B503460B4A1268F3
:101BB00042B10A4A106803446A46934206D8074A6B
:101BC000136008BD054A06491160F2E70FF0D6FB25
:101BD0000C2303604FF0FF30F3E700BFC80C002078
:101BE000283901204FF0FF3070474FF400534B600D
:101BF000002070470120704700207047034AD2F848
:101C0000883043F47003C2F88830704700ED00E07C
:101C100008B50A480A4B03604FF4E13343600023E0
:101C20008360C36003610C2242618361C36103F07E
:101C300009FD00B908BDFFF79FFDFBE7CC0C0020B4
:101C40000010014000B589B000230393049305936D
:101C500006930793026803F1804303F588339A42A1
:101C600002D009B05DF804FB0021019103F5943323
:101C70005A6C42F010025A645A6C02F0100201923F
:101C8000019A02911A6B42F001021A631B6B03F076
:101C900001030293029B4FF4C06303930223049356
:101CA000032306930723079303A9024800F024FEA9
:101CB000D7E700BF0000024008B50B4B1A6842F49A
:101CC00000721A601A6842F480621A601A6842F45C
:101CD00080721A60032000F0BDFD0020FFF7BAFEFD
:101CE000FFF796FE002008BD003C0240034A116841
:101CF000034B1B780B441360704700BF100D00208E
:101D000004000020014B1868704700BF100D002030
:101D100038B50446FFF7F6FF0546B4F1FF3F02D0A1
:101D2000044B1B781C44FFF7EDFF401BA042FAD385
:101D300038BD00BF040000204A4B5A6822F44032EC
:101D40005A605A6841680A435A600268536823F42B
:101D50008073536002685368016943EA012353604A
:101D60000268536823F040735360026853688168C7
:101D70000B4353600268936823F400639360026826
:101D80009368C1680B439360826A374B9A4257D07D
:101D90000268936823F07063936002689368816AB5
:101DA0000B4393600268936823F04053936002688A
:101DB0009368C16A0B4393600268936823F002033F
:101DC000936002689368017E43EA4103936090F850
:101DD0002030002B3FD00268536843F40063536007
:101DE0000268536823F46043536001684B68426A99
:101DF000013A43EA42334B600268D36A23F470032A
:101E0000D3620168CB6AC269013A43EA0253CB62EA
:101E10000268936823F4007393600268936890F8F3
:101E2000301043EA412393600268936823F480638F
:101E3000936002689368416943EA81239360704725
:101E40000268936823F0706393600268936823F0DC
:101E500040539360B0E70268536823F40063536013
:101E6000CAE700BF002301400100000F38B310B5DE
:101E70000446036C43B1236C13F0100F0BD0012008
:101E8000002384F83C3010BDFFF76CF90023636435
:101E900084F83C30EFE7236C23F4885323F00203EB
:101EA00043F0020323642046FFF746FF00206064EE
:101EB000236C23F0030343F001032364E0E70120D4
:101EC0007047000030B482B00022019290F83C20AC
:101ED000012A00F0B6800346012280F83C200A68FF
:101EE000092A40D90468E06892B202EB42021E3A25
:101EF0004FF0070C0CFA02F220EA0202E2601C68C2
:101F0000E0680A8802EB42021E3A8D6805FA02F286
:101F10000243E2604A68062A3CD81C68606B02EB08
:101F20008202053A4FF01F0C0CFA02F220EA02027C
:101F300062631C68606B4A6802EB8202053AB1F882
:101F400000C00CFA02F20243626318683E4A9042F3
:101F500050D018683C4A904255D0002083F83C008D
:101F600002B030BC70470468206992B202EB4202B2
:101F70004FF0070C0CFA02F220EA020222611C6800
:101F800020690A8802EB42028D6805FA02F20243D8
:101F90002261BFE70C2A16D81D68286B02EB82026B
:101FA000233A1F2404FA02F220EA02022A631D687F
:101FB000286B4A6802EB8202233A0C8804FA02F288
:101FC00002432A63C1E71D68E86A02EB8202413AD4
:101FD0001F2404FA02F220EA0202EA621D68E86A9B
:101FE0004A6802EB8202413A0C8804FA02F2024388
:101FF000EA62AAE70A68122AABD11448426842F49E
:1020000080024260A5E70A68103A012AA5D80F4865
:10201000426842F4000242600A68102A9DD10C4ACC
:1020200012680C49A1FB0212920C02EB82025200D0
:10203000019202E0019A013A0192019A002AF9D133
:102040008BE702208CE700BF002001400023014005
:102050000000002083DE1B43002800F0A18038B57B
:10206000044690F82030D3B12268136823F00203AD
:102070001360FFF747FE054623685A6812F0020F07
:1020800010D0FFF73FFE401B0A28F5D9636A43F4DE
:1020900000336362052384F82030012038BDFFF748
:1020A0009BF8E1E71A6842F001021A60FFF72AFE86
:1020B000054623685A6812F0010F0DD1FFF722FE82
:1020C000401B0A28F5D9636A43F400336362052391
:1020D00084F820300120E1E7227E012A3DD01A68F1
:1020E00022F080021A60637E012B3BD022681368C5
:1020F00023F040031360A37E012B39D022681368BC
:1021000023F020031360E37E012B37D0226813688D
:1021100043F010031360237F012B35D0226813682E
:1021200023F008031360637F012B33D02268136808
:1021300023F004031360A368E26813432269134386
:10214000626913436268013A21681343CB6100203E
:102150006062012384F82030A0E71A6842F0800210
:102160001A60C0E72268136843F040031360C2E7B7
:102170002268136843F020031360C4E722681368E1
:1021800023F010031360C6E72268136843F00803C6
:102190001360C8E72268136843F004031360CAE7BA
:1021A0000120704790F82030013BDBB2012B05D9AC
:1021B000436A43F4802343620120704730B5464BA5
:1021C000D3F8002242F00102C3F80022D3F8002223
:1021D00022F47C52C3F80022D3F80022486A42EA73
:1021E0000022C3F800224A6902F01F02012000FA0F
:1021F00002F2D3F81C026FEA020C20EA0200C3F8D4
:102200001C02CB69C3B9344BD3F80C020CEA0000B2
:10221000C3F80C028C884869CD6844EA054448300C
:1022200043F830408C68088840EA04404C6904F167
:10223000480E03EBCE035860CB69012B1ED08B698F
:10224000002B33D12448D0F804320CEA0303C0F841
:1022500004320B698BBB2048D0F814320CEA03031C
:10226000C0F814320B6A012B2ED01B4AD2F8003270
:1022700023F00103C2F80032002030BD164BD3F822
:102280000C021043C3F80C028C8848690D6844EABC
:102290000544483043F8304088894C698D6840EAED
:1022A0000540483403EBC4035860C8E70A48D0F837
:1022B00004321343C0F80432CBE70748D0F8143295
:1022C0001343C0F81432CDE70349D1F81C3213434D
:1022D000C1F81C32C9E700BF0064004070B5044675
:1022E00090F82050EDB2012D06D0436A43F400234C
:1022F00043620125284670BD022380F82030026821
:10230000136823F001031360FFF7FCFC0646236803
:102310005B6813F0010F0CD0FFF7F4FC831B0A2B52
:10232000F5D9636A43F400336362052384F82030EF
:10233000E0E700256562DDE730B590F820C004686D
:10234000A4680CF1FF3C5FFA8CFCBCF1010F6BD868
:1023500014F0E05F62D0C4F3016CBCF1020F05D948
:10236000436A43F400034362012062E0012404FA5B
:102370000CF41C608B68002B3DD10D68CB680468A1
:1023800043EA45550CF118031B01E55003680C693D
:102390000CF1180E03EB0E135C600B7D012B35D096
:1023A000D17993791B0443EA0163517943EA01230C
:1023B00014790168234301EB0C11C1F88C31D178F9
:1023C00093781B0443EA0163517843EA01231178AF
:1023D00002680B4302EB0C12C2F8883102680CF160
:1023E000180C4FEA0C1C52F80C3043F0010342F871
:1023F0000C3000201DE04C6843EAC403CC68234342
:102400000CF11804240105682B51BFE7036803EBA6
:102410000E13596841F480715960C1E7436A43F46F
:1024200000134362012004E0436A43F480234362C3
:10243000012030BD90F820C00CF1FF3C5FFA8CFC0D
:10244000BCF1010F00F2958030B451B90468E46822
:1024500014F0030F10D1436A43F4001343620120C8
:1024600077E00468246914F0030F05D1436A43F44C
:102470000013436201206CE001F11B042401056894
:102480002C5904F004049460002C64D101F11B0465
:10249000240105682C59640D1460046801F11B0CBB
:1024A0004FEA0C1C54F80C4004F00204D460046899
:1024B0006444646804F00F0414610468644464684C
:1024C000C4F307249461046864446468240C546170
:1024D000026802EB0112D2F8B8211A70026802EB0E
:1024E0000112D2F8B821C2F307225A70026802EB37
:1024F0000112D2F8B821C2F307429A70026802EBC7
:102500000112D2F8B821120EDA70026802EB011241
:10251000D2F8BC211A71026802EB0112D2F8BC2178
:10252000C2F307225A71026802EB0112D2F8BC21F1
:10253000C2F307429A71026802EB0112D2F8BC2181
:10254000120EDA7179B90268D36843F02003D360C0
:10255000002030BC704701F11B04240105682C5990
:10256000E408546099E70268136943F0200313619B
:10257000EEE7436A43F4802343620120704790F8FA
:102580002030013BDBB2012B05D9436A43F48023A1
:10259000436201207047026853690B435361002076
:1025A00070472DE9F84F054603685C69D3F804804D
:1025B0009F68D3F80CB0D3F810A0D3F8189014F09B
:1025C00001063BD017F0010616D001229A6017F0E1
:1025D000020F08D117F0040F0CD117F0080606D02F
:1025E0004FF4805608E0FEF79BFE002604E0FEF75D
:1025F000A6FE01E04FF4006617F4807F0DD02B6833
:102600004FF480729A6017F4007F40F0868017F4D0
:10261000806F00F0868046F4005617F4803F0DD09E
:102620002B684FF480329A6017F4003F40F08380AB
:1026300017F4802F00F0838046F4004614F0080F52
:1026400007D01BF0100F04D046F400762B68102240
:10265000DA6014F0040F02D01BF0080F79D114F0E7
:10266000020F04D02B68DB6813F0030F78D114F04D
:10267000400F07D01AF0100F04D046F480662B6884
:1026800010221A6114F0200F02D01AF0080F6BD13B
:1026900014F0100F04D02B681B6913F0030F6AD1DC
:1026A00014F4003F02D018F0100F68D114F4803FEA
:1026B00002D018F0080F69D114F4004F7AD018F046
:1026C000040F74D014F4807F04D019F0010F01D0EE
:1026D00046F0010614F4007F04D019F0020F01D077
:1026E00046F0020614F4806F04D019F0040F01D0F4
:1026F00046F0040614F4006F59D019F0700956D052
:10270000B9F1400F65D058D8B9F1200F5ED0B9F1BA
:10271000300F42D146F0200644E02846FEF705FE81
:102720007BE717F4006F02D046F4804675E7284631
:10273000FEF706FE71E72846FEF7FCFD7EE717F47C
:10274000002F02D046F4803678E72846FEF7F9FDE0
:1027500074E72B680822DA602846FEF7F3FD7EE76F
:102760002846FEF773FE82E72B6808221A61284686
:10277000FEF7EAFD8CE72846FEF7E5FD90E72B68BB
:1027800010225A602846FEF7E0FD8FE72B680822EA
:102790005A602846FEF7DAFD8EE7B9F1100F01D135
:1027A00046F008062A68936923F0700393612B684A
:1027B00004225A609EB9BDE8F88FB9F1500F0BD0D2
:1027C000B9F1600FEED146F48076EBE746F01006E3
:1027D000E8E746F04006E5E746F08006E2E76B6A88
:1027E00033436B622846FEF7B2FDE4E7002808DBBE
:1027F0000901C9B200F1604000F5614080F80013A2
:10280000704700F00F000901C9B2014B195470471D
:1028100014ED00E000B500F00700C0F1070CBCF1BA
:10282000040F28BF4FF0040C031D062B0FD9C31E45
:102830004FF0FF3E0EFA0CF021EA000199400EFA2B
:1028400003FE22EA0E0241EA02005DF804FB0023C7
:10285000EEE70000074AD36823F4E0631B041B0C77
:10286000000200F4E060034343F0BF6343F400332D
:10287000D360704700ED00E010B50446054BD86802
:10288000C0F30220FFF7C6FF01462046FFF7AEFF68
:1028900010BD00BF00ED00E0002807DB00F01F02C4
:1028A000400901239340024A42F82030704700BF9C
:1028B00000E100E058B110B5044643791BB1012393
:1028C0006371002010BD0371FEF702FEF7E70120DF
:1028D000704790F83530DBB2022B03D0802343657C
:1028E00001207047052380F835300268136823F013
:1028F000010313600020704700230F2B00F2E980D2
:1029000070B582B065E085684FEA430E032404FA8F
:102910000EF425EA0405CC6804FA0EF42C43846016
:10292000446824EA02044A68C2F300129A4022432F
:1029300042605CE0DC08083450F8242003F007050E
:10294000AD004FF00F0E0EFA05FE22EA0E0E0A69D8
:10295000AA4042EA0E0240F824205CE0072200E090
:10296000002202FA0EF22A4302345A4D45F824207E
:10297000594A14686FEA0C0224EA0C054E6816F4F2
:10298000803F01D04CEA0405534C2560646802EA9C
:1029900004054E6816F4003F01D04CEA04054E4C85
:1029A0006560A46802EA04054E6816F4801F01D031
:1029B0004CEA0405484CA560E46822404D6815F4D3
:1029C000001F01D04CEA0402434CE26001330F2B9C
:1029D0007DD801229A400C6804EA020C32EA040411
:1029E000F4D14C6804F00304013C012C8BD94A68F3
:1029F00002F00302032A09D0C4685D000322AA4042
:102A000024EA02048A68AA402243C2604A6802F0AB
:102A10000302022A8ED004684FEA430E032202FA10
:102A20000EF224EA02044A6802F0030202FA0EF2ED
:102A3000224302604A6812F0805FC7D000220192F0
:102A4000264A546C44F480445464526C02F480422C
:102A50000192019A9C08A51C1E4A52F8255003F0C9
:102A6000030E4FEA8E0E0F2202FA0EF225EA02053D
:102A70001B4A90423FF474AF02F5806290421AD034
:102A800002F58062904218D002F58062904216D022
:102A900002F58062904214D002F58062904212D01A
:102AA00002F58062904210D002F5806290423FF4BD
:102AB00055AF082255E7012253E7022251E70322CE
:102AC0004FE704224DE705224BE7062249E702B013
:102AD00070BD704700380140003C014000380240A2
:102AE000000002400AB181617047090481617047AA
:102AF00003685A6912F4806F01D1002070476FF4A7
:102B000080625A6100230363202280F83D2080F810
:102B10003E30026C42F00402026480F83C30012036
:102B200070472DE9F04107460D4690461E4624E0C9
:102B3000FFF7E8F8069BC01AB04200D8EEB90023B0
:102B40003B63202287F83D2087F83E303A6C42F004
:102B500020023A6487F83C3001201EE03B689C6903
:102B600025EA040C1FFA8CFCBCFA8CFC4FEA5C1CB6
:102B7000E04511D1B6F1FF3FDAD1C5F30743012B90
:102B8000ECD13B685B6925EA030C1FFA8CFCBCFAAC
:102B90008CFC4FEA5C1CEBE70020BDE8F0812DE9DE
:102BA000F04105460E46174698463DE01A6842F445
:102BB00000721A602B686FF480625A6100232B63E5
:102BC000202285F83D2085F83E302A6C42F0040230
:102BD0002A6485F83C30012034E0FFF793F8A0EB3D
:102BE0000800B84200D8FFB900232B63202285F8E3
:102BF0003D2085F83E302A6C42F020022A6485F898
:102C00003C3001201EE02B689C6926EA0404A4B233
:102C1000003C18BF0124A4B12B685A6912F4806FDC
:102C2000C4D1B7F1FF3FD8D1C6F30743012BEAD196
:102C30002B685C6926EA0404A4B2003C18BF012496
:102C4000E9E70020BDE8F081F0B583B004460D4609
:102C500016461F46C36A082B0DD0012B0BD013F567
:102C6000803F08D0036B122B0AD10268136843F42B
:102C70008073136004E02268136843F48073136068
:102C80000097334600224FF001112046FFF749FF1D
:102C900080B92369B3F5804F16D1236805F0FE058E
:102CA0001D613B46324613492046FFF778FFF8B9CD
:102CB00003B0F0BD23681B6813F4807F02D04FF48B
:102CC000007323640320F3E7EB11226803F006038B
:102CD00043F0F00313613B46324607492046FFF7B5
:102CE0005EFF18B92368EDB21D61DAE70120DFE766
:102CF0000120DDE702000100080001002DE9F0419C
:102D000084B004460D4616461F46C26A01680B6829
:102D100043F480630B60082A0DD0012A0BD012F512
:102D2000803F08D0036B112B0AD10268136843F46B
:102D30008073136004E02268136843F480731360A7
:102D40000097334600224FF001112046FFF7E9FEBD
:102D500098B92369B3F5804F19D1236845F001056F
:102D6000EDB21D613B4632462A492046FFF717FF68
:102D700000284CD104B0BDE8F08123681B6813F42F
:102D8000807F02D04FF4007323640320F2E74FEA00
:102D9000E51808F00608236848F0F0021A613B467F
:102DA00032461D492046FFF7FAFE08B10120E1E74F
:102DB0002368EDB21D613B46324616492046FFF7B7
:102DC000EEFE08B10120D5E700220392236859697D
:102DD0000391996903910399196841F4807119600D
:102DE000009733464FF001112046FFF79AFE20B9B5
:102DF000226848F0F1031361B4E723681B6813F4F9
:102E0000807F02D04FF4007323640320B2E70120D7
:102E1000B0E700BF020001000800010070B50446E1
:102E20000D46164623685B6913F0800F1CD12046BF
:102E3000FFF75EFED0B9B5F1FF3FF3D0FEF762FFBA
:102E4000801BA84201D8002DECD10023236320224F
:102E500084F83D2084F83E30226C42F02002226447
:102E600084F83C30012000E0002070BD0120FCE728
:102E700070B504460D46164623685B6913F0040FCF
:102E80001CD12046FFF734FED0B9B5F1FF3FF3D097
:102E9000FEF738FF801BA84201D8002DECD100239B
:102EA0002363202284F83D2084F83E30226C42F0D7
:102EB0002002226484F83C30012000E0002070BD34
:102EC0000120FCE770B505460C4616462B6859698B
:102ED00011F0400F29D1596911F0100F15D1FEF7EB
:102EE00011FF801BA04201D8002CEFD100232B63DF
:102EF000202285F83D2085F83E302A6C42F02002E1
:102F00002A6485F83C30012070BD6FF010025A61D0
:102F100000232B63202285F83D2085F83E302A6C63
:102F20002A6485F83C300120EEE70020ECE7000041
:102F3000002800F0CC8070B5044690F83D30002B9E
:102F400077D0242384F83D302268136823F00103EE
:102F500013602268136843F4004313602268136807
:102F600023F40043136001F0B1FB62685A4B9A42AC
:102F700064D85A4B98428CBF00230123002B40F0A9
:102F8000A8805749A1FB00318B0C25686A6822F0A4
:102F90003F0242EA91426A6021680A6A22F03F02D7
:102FA00066684D4DAE424FD8013313430B62216822
:102FB000CA6922F44F4222F0FF026568464B9D42E7
:102FC0004CD8431E6D00B3FBF5F3013340F6FC70A3
:102FD000034278D0C3F30B031A43CA6121680B681C
:102FE00023F0C003E269206A024313430B602168A7
:102FF0008B6823F4034323F0FF032269E068024354
:1030000013438B602168CB6823F0FF036269A069DA
:1030100002431343CB602268136843F0010313603B
:1030200000202064202384F83D30206384F83E0093
:1030300070BD80F83C30FEF749FB82E7294B98428F
:103040008CBF0023012399E74FF4967505FB03F32A
:10305000254DA5FB03539B090133A6E7A668BEB91E
:10306000431E05EB450CB3FBFCF30133C3F30B0329
:10307000B3FA83F35B0943BBC6B9431E05EB4505B1
:10308000B3FBF5F30133C3F30B0343F40043A3E7AE
:10309000431E05EB850C0CEB8C0CB3FBFCF30133EE
:1030A000C3F30B03B3FA83F35B09E4E7431E05EBB9
:1030B000850505EB8505B3FBF5F30133C3F30B037E
:1030C00043F4404388E7042386E7012384E7012093
:1030D00070470120ACE700BFA08601007F841E007E
:1030E00083DE1B43FF083D00D34D62102DE9F04302
:1030F00085B004460F46914698460C9EFEF702FEA8
:10310000054694F83D00C0B2202804D00227384676
:1031100005B0BDE8F0830095192301224F492046F0
:10312000FFF7FFFC002840F0928094F83C30012B20
:1031300000F08F80012384F83C3023681A6812F075
:10314000010F03D11A6842F001021A602268136865
:1031500023F400631360212384F83D30102384F8A6
:103160003E3000232364C4F82490A4F82A80638DA1
:1031700023853B4BE3622B46324639462046FFF718
:1031800063FD0746002866D10023039323685A692C
:1031900003929B690393039B11E0236C042B01D0E2
:1031A0000127B4E72268136843F400731360F7E75C
:1031B0002A4631462046FFF75BFE00282ED1238D9C
:1031C000002B36D02A4631462046FFF727FE00283E
:1031D000E3D1626A236812781A61606A431C6362F1
:1031E000618D89B2013989B26185238D013B9BB222
:1031F00023852268516911F0040FD9D0002BD7D054
:1032000043781361636A01336362638D9BB2013B50
:103210009BB26385238D013B2385C9E7236C042B77
:1032200001D0012773E72268136843F40073136029
:10323000F7E72268136843F400731360202384F8CF
:103240003D30002384F83E3084F83C305FE70227AD
:103250005DE702275BE7012759E700BF0200100086
:103260000000FFFF2DE9F04387B004460F4691466A
:1032700098460E9EFEF746FD054694F83D00C0B206
:10328000202804D00227384607B0BDE8F083009517
:103290001923012289492046FFF743FC002840F00A
:1032A000458194F83C30012B00F04281012384F8E1
:1032B0003C3023681A6812F0010F03D11A6842F0FB
:1032C00001021A602268136823F40063136022234A
:1032D00084F83D30102384F83E3000232364C4F882
:1032E0002490A4F82A80638D2385754BE3622B46D6
:1032F000324639462046FFF701FD0746002840F0D8
:103300001981238D5BB9029323685A6902929A69E5
:103310000292029A1A6842F400721A607AE0012B53
:103320000FD0022B1FD02268136843F48063136010
:103330000023059323685A6905929B690593059BB1
:1033400068E02268136823F480631360002303930A
:1033500023685A6903929A690392039A1A6842F49D
:1033600000721A6056E02268136823F480631360C9
:103370002268136843F400631360002304932368F6
:103380005A6904929B690493049B43E02A463146A0
:103390002046FFF797FD002840F0CE8023681A6989
:1033A000636A1A70636A01336362238D013B23856C
:1033B000638D9BB2013B9BB263852BE00095334646
:1033C000002240492046FFF7ACFB002840F0B680C1
:1033D0002268136843F40073136023681A69636AF0
:1033E0001A70626A531C6362238D013B2385638DCF
:1033F0009BB2013B9BB2638523681B695370636A70
:1034000001336362238D013B2385638D9BB2013BB6
:103410009BB26385218D00297FD0032954D80129CF
:10342000B4D00229CAD0009533460022254920464F
:10343000FFF777FB002840F083802268136823F4AD
:103440008063136023681A69636A1A70636A0133C0
:103450006362238D013B2385618D89B2013989B275
:10346000618500953346002216492046FFF759FB37
:10347000002867D12268136843F40073136023683F
:103480001A69636A1A70626A531C6362238D013B76
:103490002385638D9BB2013B9BB2638523681B69C7
:1034A0005370636A01336362238D013B2385638D0F
:1034B0009BB2013B9BB26385ACE700BF02001000EA
:1034C0000000FFFF040001002A4631462046FFF7B6
:1034D000F9FC002838D123681A69636A1A70626A95
:1034E000531C6362238D013B2385638D9BB2013B9B
:1034F0009BB263852368596911F0040F8AD01B6958
:103500005370636A01336362238D013B2385638DAE
:103510009BB2013B9BB263857CE7202384F83D305E
:10352000002384F83E3084F83C30ACE60227AAE65B
:103530000227A8E60127A6E60127A4E60127A2E6BE
:103540000127A0E601279EE601279CE62DE9F0432E
:1035500083B0D0F80080C1EBC10300EB83035A6D48
:103560001B6D9A4254D807460C469B1AC1EBC10208
:1035700000EB8202526C9A4200D31A4602F1030910
:103580004FEA990915E006F103094FEA9909C4EBDE
:10359000C40507EB8505A96C3B7C0093B3B2E2B28E
:1035A000404602F039FCAB6C3344AB646B6D334482
:1035B0006B6508EB441303F510639B699BB24B45A5
:1035C00012D3C4EBC40307EB83035A6D1B6D9A42FD
:1035D0000AD24BB19B1AC4EBC40207EB8202566CB1
:1035E0009E42D0D31E46CEE7C4EBC40307EB83074D
:1035F0003A6D7B6D9A420FD804F00F040122A2406D
:10360000D8F8343823EA0203C8F83438002000E040
:10361000012003B0BDE8F0830020FAE770B58AB05E
:10362000002800F090800546046890F8BD333BB355
:10363000032385F8BD33E36B13F4807F01D10023AE
:103640002B61286802F076F92C4654F8106BEC4692
:103650000FCCACE80F000FCCACE80F0094E80300EF
:103660008CE803002B1D0ECB304602F0A5F8044673
:1036700058B1022385F8BD33012420460AB070BD3D
:1036800080F8BC3306F0BEFDD2E70021286802F0C6
:1036900057F9234616E0C3EBC30205EB8202012172
:1036A00082F83D1082F83C30A2F84230002182F8C6
:1036B0003F1051649164C3EBC30205EB82021165B4
:1036C0000133DBB269688B42E5D316E0C4EBC40377
:1036D00005EB8303002283F8FD2183F8FC4183F886
:1036E000FF21C3F80422C3F80822C4EBC40305EB8E
:1036F0008303C3F810220134E4B2A142E6D82C4679
:1037000054F8106BEC460FCCACE80F000FCCACE8D3
:103710000F0094E803008CE803002B1D0ECB30460D
:1037200002F054F9044620B1022385F8BD33012488
:10373000A3E7002385F83830012385F8BD332868D6
:1037400002F026FD99E7012497E7026890F8BC3360
:10375000012B19D010B50446012380F8BC33836ACD
:10376000012B09D0206802F0DFF8206802F002FD8A
:10377000002084F8BC0310BD8369012BF2D0936B49
:1037800043F480339363EDE70220704770B504463D
:103790000D460068066C00EB411303F530639A6830
:1037A0002169012911D034498E424ED03DB9C5EB73
:1037B000C50304EB8303D3F81032002B56D0E9B2D3
:1037C000204606F069FD002070BD12F0080F09D0F8
:1037D0002A498E42F7D912F4004FF4D04FF4004238
:1037E0009A60F0E712F0200F02D020229A60EAE7F8
:1037F00012F0280FE7D121498E4206D912F4004F6A
:1038000003D04FF400429A60DDE7C5EBC50204EB3C
:103810008202D2F804121B69C3F31203CB1AC2F856
:103820001432D2F808320B44C2F8083215B9D2F873
:10383000103223B1E9B2204606F02EFDC3E704F5AD
:103840007172012102F0F6FCF4E712F4004F03D08C
:103850004FF400429A60B6E712F0200F01D0202208
:103860009A60E9B2204606F017FDACE704F57172E4
:10387000002102F0DFFCA2E70A31544F0A30544F16
:1038800038B5044603681D6C03EB4113D3F8081BDD
:103890000E4A954207D903F5306311F4004F02D068
:1038A0004FF400429A60204606F0EEFC074B9D4222
:1038B00002D92369012B01D0002038BD04F57172B3
:1038C0000121206802F0B6FCF6E700BF0A30544F31
:1038D0002DE9F84F04460568284602F096FC08B129
:1038E000BDE8F88F0646206802F060FC0028F7D09B
:1038F000206802F05BFC10F0020F04D022685369CC
:1039000003F002035361206802F050FC10F0100F26
:1039100013D02268936923F0100393612F6A07F094
:103920000F08C7F34343022B68D0062B00F08480B6
:103930002268936943F010039361206802F036FC1B
:1039400010F4002F40F08A80206802F02FFC10F461
:10395000802F40F0CC80206802F028FC0028C0F2C4
:103960003681206802F022FC10F4006F0AD0D5F8EE
:10397000083813F0010F40F044812268536903F4C2
:1039800000635361206802F011FC10F4805F40F086
:103990003C81206802F00AFC10F4005F40F0918145
:1039A000206802F003FC10F0080F40F0A2812068AC
:1039B00002F0FCFB10F4801F40F0A481206802F0AC
:1039C000F5FB10F4001F40F0A781206802F0EEFB29
:1039D00010F0804F40F0AA81206802F0E7FB10F061
:1039E000040F3FF47DAF23685D6815F0040F40F0CD
:1039F000A681226853682B43536071E747F6F07342
:103A00001F4295D04FEA171BC8EBC80904EB890980
:103A1000C7F30A12D9F80812284602F031FBD9F888
:103A20000822CBF30A031A44C9F80822D9F8141261
:103A30000B44C9F814327BE7082204F5717128465B
:103A400002F01EFBC8EBC80304EB8303D3F8142277
:103A5000C7F30A173A44C3F8142269E7206802F052
:103A6000A9FB0746B04616E005EB48130122C3F850
:103A7000082B41462046FFF789FE1BE005EB481363
:103A80000822C3F8082B41462046FFF7F9FE14E050
:103A900008F101087F08002F3FF456AF17F0010F1F
:103AA000F6D05FFA88F1206802F094FB814610F0AE
:103AB000010FD9D119F0080FE0D119F0100F04D07F
:103AC00005EB48131022C3F8082B19F0200F04D07F
:103AD00005EB48132022C3F8082B19F4005FD7D058
:103AE00005EB48134FF40052C3F8082BD0E72068C9
:103AF00002F068FB0746B04629E05146204606F032
:103B0000D7FB19F0080F04D005EB48130822C3F8BF
:103B1000082919F0100F04D005EB48131022C3F840
:103B2000082919F0400F04D005EB48134022C3F8D0
:103B3000082919F0020F04D005EB48130222C3F83C
:103B4000082919F0800F3DD108F101087F08002FE6
:103B50003FF401AF17F0010FF6D05FFA88FA514633
:103B6000206802F040FB814610F0010FC9D008F038
:103B70000F02012101FA02F2D5F8343823EA0203D8
:103B8000C5F8343805EB4813C3F8081923698B428C
:103B9000B3D1C8EBC80304EB83039A6C596C0A4495
:103BA0009A64B8F1000FA8D1C8EBC80304EB8303F3
:103BB0001B6D002BA1D104F571720121206802F068
:103BC00039FB9AE741462046FFF7C0FCBCE7D5F831
:103BD000043823F00103C5F8043894F8F433012BBA
:103BE00008D0204606F0A4FB2268536903F0004386
:103BF0005361B6E6002184F8F413204600F045FA3C
:103C0000F2E7204606F07CFBB7E605F500677B6827
:103C100023F001037B601021206801F0A9FE20E061
:103C200005EB46134FF67F31C3F80819D3F8002986
:103C300022F40012C3F80029D3F8002942F00062F0
:103C4000C3F80029C3F8081BD3F8002B22F4001294
:103C5000C3F8002BD3F8002B42F00062C3F8002B0E
:103C600001366368B342DBD8FB6943F00113FB61A3
:103C7000236BDBB1D7F8843043F00B03C7F88430F3
:103C80007B6C43F00B037B64D5F8003823F4FE63B0
:103C9000C5F8003804F57172217C206802F0CAFA78
:103CA0002268536903F48053536172E67B6943F4DD
:103CB000005343F02B037B613B6943F00B033B61F3
:103CC000E2E7206802F0A5FA206801F047FFE06013
:103CD000256800F0F5FC0146227B284601F0B2FD84
:103CE000204606F0F6FA2268536903F40053536144
:103CF00056E6204606F0E7FA2268536903F0080307
:103D0000536154E60021204606F01EFB22685369E9
:103D100003F48013536151E60021204606F00EFBA8
:103D20002268536903F4001353614EE6204606F0FF
:103D300011FB2268536903F0804353614CE620462F
:103D400006F00EFB55E690F8BC33012B0DD010B5F4
:103D50000446012380F8BC3380F83810006802F074
:103D6000F9F9002084F8BC0310BD0220704738B573
:103D700005468C4611F0800F29D101F00F0ECEEBD5
:103D8000CE04A40004F5FC740444211DCEEBCE0E39
:103D900000EB8E0E00208EF8FD010CF00F0C81F868
:103DA00000C08A60CB704A780AB1A1F806C0022B25
:103DB0001DD095F8BC33012B1CD0012385F8BC33F2
:103DC000286801F0DCFE002085F8BC0338BD01F056
:103DD0000F00C0EBC0018900383129440431C0EB29
:103DE000C00005EB8000012480F83D40D5E70023AA
:103DF0000B71DEE70220E9E710B504460A4611F030
:103E0000800F20D101F00F00C0EBC0039B0003F531
:103E1000FC732344191DC0EBC00004EB8000002399
:103E200080F8FD3102F00F020A7094F8BC33012BC8
:103E300019D0012384F8BC33206801F0EDFE002086
:103E400084F8BC0310BD01F00F00C0EBC0039B0061
:103E500038332344191DC0EBC00004EB800001235C
:103E600080F83D30DEE70220ECE710B501F00F04EA
:103E7000C4EBC401890001F5FC7101440431C4EBB9
:103E8000C40C00EB8C0CCCF80822CCF810320023C8
:103E9000CCF814328CF8FD318CF8FC410369012B0D
:103EA00006D064B9DAB2006801F026FF002010BD28
:103EB000C4EBC40C00EB8C0CCCF80C22F1E7DAB2AA
:103EC000006801F0C1FFF1E701F00F01C1EBC10192
:103ED00000EB8100D0F81402704710B501F00F0418
:103EE000C4EBC4018900383101440431C4EBC40C73
:103EF00000EB8C0CCCF84820CCF850300023CCF8E8
:103F0000543001238CF83D308CF83C400369012B80
:103F100006D064B9DAB2006801F0EEFE002010BDF0
:103F2000C4EBC40C00EB8C0CCCF84C20F1E7DAB2FB
:103F3000006801F089FFF1E738B501F00F0542682C
:103F4000954239D804460B4611F0800F1FD1C1EBC2
:103F5000C101890001F5FC7101440431C3EBC303C5
:103F600000EB8303002283F8FD2101238B700D7089
:103F700094F8BC33012B21D0012384F8BC33206892
:103F800002F08DF88DB1002084F8BC0338BDC5EB7C
:103F9000C5018900383101440431C5EBC50300EB8C
:103FA0008303012283F83D20DFE704F57172217C51
:103FB000206802F03FF9E6E70120E7E70220E5E7A5
:103FC00001F00F034268934231D810B5044611F056
:103FD000800F1ED1C3EBC301890001F5FC710144C0
:103FE0000431C3EBC30200EB8202002082F8FD0122
:103FF00000228A700B7094F8BC33012B19D0012376
:1040000084F8BC33206802F077F8002084F8BC0301
:1040100010BDC3EBC3018900383101440431C3EB47
:10402000C30200EB8202012082F83D00E0E701209C
:1040300070470220ECE710B40468606A31B940EAC6
:104040000240A06200205DF8044B70478C46A36AD2
:1040500000EB1340002308E003F1400104EB810171
:10406000496800EB11400133DBB20CF1FF318B42A8
:10407000F2D340EA02400CF13F0104EB810460609E
:10408000E0E703685962002070477047002800F09D
:10409000E08170B582B00446036813F0010F3BD095
:1040A0009F4B9B6803F00C03042B2CD09C4B9B680C
:1040B00003F00C03082B21D06368B3F5803F4FD089
:1040C000B3F5A02F52D0964B1A6822F480321A60B2
:1040D0001A6822F480221A606368002B50D0FDF722
:1040E00011FE05468E4B1B6813F4003F14D1FDF7FB
:1040F00009FE401B6428F5D90320B1E1884B5B68B9
:1041000013F4800FD8D0864B1B6813F4003F03D004
:104110006368002B00F09F81236813F0020F54D0D6
:104120007F4B9B6813F00C0F3ED07D4B9B6803F0D8
:104130000C03082B33D0E368002B68D0794B0122A5
:104140001A60FDF7DFFD0546754B1B6813F0020F83
:1041500054D1FDF7D7FD401B0228F5D903207FE19C
:104160006F4A136843F480331360B5E76C4B1A68E9
:1041700042F480221A601A6842F480321A60ABE777
:10418000FDF7C0FD0546664B1B6813F4003FC3D026
:10419000FDF7B8FD401B6428F5D9032060E1604BB2
:1041A0005B6813F4800FC6D15D4B1B6813F0020FE0
:1041B00003D0E368012B40F05081594A136823F083
:1041C000F803216943EAC1031360236813F0080F61
:1041D00042D063696BB3534B0122C3F8802EFDF7C5
:1041E00091FD05464E4B5B6F13F0020F34D1FDF786
:1041F00089FD401B0228F5D9032031E1484A1368A4
:1042000023F0F803216943EAC1031360DDE7454B5E
:1042100000221A60FDF776FD0546414B1B6813F03E
:10422000020FD2D0FDF76EFD401B0228F5D9032006
:1042300016E13C4B0022C3F8802EFDF763FD0546D6
:10424000374B5B6F13F0020F06D0FDF75BFD401B91
:104250000228F5D9032003E1236813F0040F77D077
:104260002F4B1B6C13F0805F33D1002301932C4B39
:104270001A6C42F080521A641B6C03F08053019355
:10428000019B0125284B1B6813F4807F23D0A36872
:10429000012B34D0052B38D0214B1A6F22F00102AC
:1042A0001A671A6F22F004021A67A368002B3DD028
:1042B000FDF728FD06461A4B1B6F13F0020F46D17F
:1042C000FDF720FD801B41F288339842F3D903208B
:1042D000C6E00025D6E7144A136843F480731360E0
:1042E000FDF710FD0646104B1B6813F4807FCED1FE
:1042F000FDF708FD801B0228F5D90320B0E0084A2D
:10430000136F43F001031367CFE7054B1A6F42F0B9
:1043100004021A671A6F42F001021A67C5E700BF6C
:10432000003802400000474200700040FDF7EAFC00
:104330000646524B1B6F13F0020F08D0FDF7E2FC4C
:10434000801B41F288339842F3D9032088E0EDB90D
:10435000A369002B00F08380484A926802F00C02A7
:10436000082A51D0022B17D0454B00221A66FDF7C0
:10437000C9FC0446414B1B6813F0007F42D0FDF797
:10438000C1FC001B0228F5D9032069E03B4A136CED
:1043900023F080531364DBE7394B00221A66FDF7E4
:1043A000B1FC0546354B1B6813F0007F06D0FDF7C6
:1043B000A9FC401B0228F5D9032051E0E369226AD9
:1043C0001343626A43EA8213A26A5208013A43EA3B
:1043D0000243E26A43EA0263284A5360284B0122FF
:1043E0001A66FDF78FFC0446244B1B6813F0007F10
:1043F00006D1FDF787FC001B0228F5D903202FE02A
:1044000000202DE000202BE0012B2BD01B4B5B6804
:1044100003F48001E269914226D103F03F02216A50
:104420008A4223D1616A47F6C0721A40B2EB811FFB
:104430001ED103F44031A26A5208013AB1EB024F97
:1044400018D103F07063E26AB3EB026F14D100205D
:1044500006E001207047012002E0012000E000207A
:1044600002B070BD0120FBE70120F9E70120F7E76A
:104470000120F5E70120F3E70120F1E700380240D1
:104480000000474208B5334B9B6803F00C03042B34
:104490005BD0082B5BD12F4B5A6802F03F025B6860
:1044A00013F4800F2CD02B4B5868C0F388104FEAC0
:1044B000401CBCEB000C6EEB0E0E4FEA8E1343EA71
:1044C0009C634FEA8C11B1EB0C0163EB0E03DB0034
:1044D00043EA5173C90011EB000C43F10003590288
:1044E00000234FEA4C2041EADC51FCF745FB194B15
:1044F0005B68C3F3014301335B00B0FBF3F027E0DB
:10450000144B5868C0F388104FEA401CBCEB000CF9
:104510006EEB0E0E4FEA8E1343EA9C634FEA8C114A
:10452000B1EB0C0163EB0E03DB0043EA5173C900EE
:1045300011EB000C43F10003990200234FEA8C2099
:1045400041EA9C51FCF718FBD1E7034800E003481F
:1045500008BD00BF0038024000127A000024F400B9
:10456000002800F09B8070B50D4604464F4B1B6839
:1045700003F007038B4208D2CBB24C4A1370136886
:1045800003F007038B4240F08B80236813F0020F87
:1045900017D013F0040F04D0454A936843F4E05356
:1045A0009360236813F0080F04D0414A936843F4E2
:1045B000604393603E4A936823F0F003A1680B4385
:1045C0009360236813F0010F32D06368012B21D070
:1045D0009A1E012A25D9364A126812F0020F61D0BC
:1045E00033498A6822F0030213438B60FDF78AFB8C
:1045F00006462F4B9B6803F00C036268B3EB820FF7
:1046000016D0FDF77FFB801B41F288339842F0D92A
:10461000032042E0264A126812F4003FE0D1012054
:104620003BE0234A126812F0007FD9D1012034E028
:104630001E4B1B6803F00703AB4207D9EAB21B4BC2
:104640001A701B6803F00703AB422DD1236813F0E7
:10465000040F06D0164A936823F4E053E1680B4335
:104660009360236813F0080F07D0114A936823F46E
:104670006043216943EAC1039360FFF703FF0C4BDA
:104680009B68C3F303130B4AD35CD8400A4B1860F2
:104690000A4B1868FDF7DEF9002070BD0120704755
:1046A0000120FAE70120F8E70120F6E7003C02408C
:1046B00000380240E85501080000002008000020F2
:1046C000014B1868704700BF0000002008B5FFF7D5
:1046D000F7FF044B9B68C3F38223034AD35CD840A3
:1046E00008BD00BF00380240E055010808B5FFF7DB
:1046F000E7FF044B9B68C3F34233034AD35CD840C3
:1047000008BD00BF00380240E05501080F230360D8
:104710000B4B9A6802F0030242609A6802F0F002C2
:1047200082609A6802F4E052C2609B68DB0803F47E
:10473000E0530361034B1B6803F007030B607047F2
:1047400000380240003C024038B5FDF7DBFA044671
:10475000464A136843F001031360444B1B6813F08F
:10476000020F06D1FDF7CEFA001B0228F5D903206F
:1047700038BD3E4D2B6843F080032B60FDF7C2FA35
:1047800004460023AB60394B9B6813F00C0F08D034
:10479000FDF7B8FA001B41F288339842F3D90320A1
:1047A000E6E7FDF7AFFA0446304A136823F45023D6
:1047B00013602E4B1B6813F4003F06D0FDF7A2FADE
:1047C000001B6428F5D90320D2E7FDF79BFA0446C5
:1047D000264A136823F080731360244B1B6813F080
:1047E000007F06D0FDF78EFA001B0228F5D90320C2
:1047F000BEE7FDF787FA04461C4A136823F080637E
:1048000013601A4B1B6813F0006F06D0FDF77AFA9D
:10481000001B0228F5D90320AAE7144B144A5A605A
:10482000144AC3F88420DA6822F4F852DA60DA68AD
:1048300022F40052DA60DA6842F41F02DA60DA68C1
:1048400042F40012DA605A6F22F001025A675A6F7E
:1048500042F080725A67084B084A1A60084B186881
:10486000FDF7F8F8002883D0012081E700380240E6
:104870001030000400300020000000200024F4006C
:10488000080000202DE9F04782B00546884617460B
:104890001E46FDF737FA0A9B1B1A03EB0609FDF7C4
:1048A00031FA8246284B1B68C3F3CB3309FB03F371
:1048B00001932B689C6838EA04040CBF0123002391
:1048C000BB423DD0B6F1FF3FF3D0FDF71BFAA0EBA2
:1048D0000A00484507D2019A02B14A46019B013BB2
:1048E00001939146E5E72A68536823F0E00353609B
:1048F0006B68B3F5827F0BD0AB6AB3F5005F14D061
:10490000012385F85130002385F85030032018E04A
:10491000AB68B3F5004F02D0B3F5806FECD12A68D5
:10492000136823F040031360E6E72A68136823F452
:10493000005313602A68136843F400531360DFE7E1
:10494000002002B0BDE8F0870000002010B584B060
:104950000446164B1868164BA3FB0030400D4FF46D
:104960007A7303FB00F003906368B3F5827F0BD08A
:10497000039BBBB1039B013B039323689B6813F02C
:10498000800FF5D100200EE000920B46002280211E
:104990002046FFF777FF30B1636D43F02003636576
:1049A000032000E0002004B010BD00BF0000002084
:1049B000819F5E1610B582B004460B464168B1F582
:1049C000827F14D06168B1F5827F2AD1A168B1F5E8
:1049D000806F19D00092002280212046FFF752FFFD
:1049E00030B3636D43F020036365032020E08168EA
:1049F000B1F5004F02D0B1F5806FE3D120680168B6
:104A000021F040010160DDE70092002201212046F3
:104A1000FFF738FF60B1636D43F020036365032047
:104A200006E00092002201212046FFF72BFF08B983
:104A300002B010BD636D43F0200363650320F7E708
:104A400000285AD010B50446436A33B94368B3F519
:104A5000827F05D00023C36102E00023036143612C
:104A60000023A36294F85130002B40D0022384F835
:104A700051302268136823F040031360636803F425
:104A80008273A26802F404421343E26802F40062F3
:104A90001343226902F002021343626902F0010229
:104AA0001343A26902F400721343E26902F0380270
:104AB0001343226A02F080021343A26A02F40052F6
:104AC000216813430B60638B03F00403626A02F0F6
:104AD0001002216813434B602268D36923F40063FA
:104AE000D36100206065012384F8513010BD84F843
:104AF00050302046FCF7F8FEB8E7012070472DE95A
:104B0000F04383B01D4690F85030012B00F0D18067
:104B1000044688469146012380F85030FDF7F2F8AC
:104B2000074694F85160F6B2012E40F0AF80B8F11C
:104B3000000F00F0AC80B9F1000F00F0A880032353
:104B400084F8513000236365C4F83080A4F83490B1
:104B5000A4F83690A363A387E38763642364A36800
:104B6000B3F5004F1ED023681A6812F0400F03D12E
:104B70001A6842F040021A60E368B3F5006F1CD077
:104B8000636813B1B9F1010F52D1226B2368127817
:104B90001A73236B01332363E38E9BB2013B9BB2F9
:104BA000E38645E02268136823F04003136022681F
:104BB000136843F480431360D5E7636813B1B9F118
:104BC000010F16D1226B23681288DA60236B02333F
:104BD0002363E38E9BB2013B9BB2E38609E0FDF7C2
:104BE00091F8C01BA84202D3B5F1FF3F59D1002D67
:104BF00059D0E38E9BB2002B33D023689A6812F011
:104C0000020FECD0226B1288DA60236B023323632D
:104C1000E38E9BB2013B9BB2E386EAE7FDF772F8B5
:104C2000C01BA84202D3B5F1FF3F3ED1002D3ED0BC
:104C3000E38E9BB2ABB123689A6812F0020FEDD0FD
:104C4000226B12781A73236B01332363B4F836C0D6
:104C50001FFA8CFC0CF1FF3C1FFA8CFCA4F836C048
:104C6000E6E73A4629462046FFF770FE08B12023C2
:104C70006365A36833B901932368DA6801929B687E
:104C80000193019B636D13B9002600E00226012306
:104C900084F85130002384F85030304603B0BDE82A
:104CA000F0830326F3E70326F1E70326EFE7032665
:104CB000EDE70226F1E72DE9F04383B01F460A9D98
:104CC00090F85030012B00F0108104468846914640
:104CD000012380F85030FDF715F8064694F851305E
:104CE000DBB26268012B0AD0B2F5827F40F0E3802C
:104CF000A268002A40F0E980042B40F0E880B8F177
:104D0000000F00F0E680B9F1000F00F0E480002F02
:104D100000F0E38094F85130DBB2042B02D005237D
:104D200084F8513000236365C4F83890E787A7877B
:104D3000C4F83080E786A7862364636423681A6812
:104D400012F0400F03D11A6842F040021A60E36883
:104D5000B3F5006F11D063680BB1012F0BD1226B3B
:104D6000236812781A73236B01332363E38E9BB29B
:104D7000013B9BB2E38601276BE063680BB1012F17
:104D80000BD1226B23681288DA60236B0233236312
:104D9000E38E9BB2013B9BB2E38601271CE02368B4
:104DA0009A6812F0010F0ED0E28F92B25AB1DA680F
:104DB000A36B1A80A36B0233A363E38F9BB2013B07
:104DC0009BB2E3870127FCF79DFF801BA84203D31A
:104DD000B5F1FF3F40F08380E38E9BB21BB9E38FB8
:104DE0009BB2002B53D023689A6812F0020FD6D0E2
:104DF000E28E92B2002AD2D0002FD0D0226B12883D
:104E0000DA60236B02332363E38E9BB2013B9BB2D8
:104E1000E3860027C3E723689A6812F0010F0ED0DB
:104E2000E28F92B25AB1DA68A36B1A70A36B0133A6
:104E3000A363E38F9BB2013B9BB2E3870127FCF79F
:104E400061FF831BAB4202D3B5F1FF3F49D1002D77
:104E500049D0E38E9BB213B9E38F9BB2BBB12368F9
:104E60009A6812F0020FD6D0E28E92B2002AD2D007
:104E7000002FD0D0226B12781A73236B0133236377
:104E8000E38E9BB2013B9BB2E3860027C3E7324629
:104E900029462046FFF75AFD48B9A36863B9019334
:104EA0002368DA6801929B680193019B04E0202348
:104EB0006365012000E00220012384F851300023C3
:104EC00084F8503003B0BDE8F0830220F4E70220FC
:104ED000F2E70120F0E70120EEE70120ECE70320F4
:104EE000EAE70320E8E70320E6E70220EAE72DE906
:104EF000F04383B00446884691461D464068B0F5AD
:104F0000827F38D094F85030012B00F0AE8001231E
:104F100084F85030FCF7F6FE074694F85160F6B27C
:104F2000012E40F08F80B8F1000F00F08C80B9F1B5
:104F3000000F00F08880042384F85130002363655B
:104F4000C4F83880A4F83C90A4F83E902363A3866C
:104F5000E38623646364A368B3F5004F19D0236824
:104F60001A6812F0400F03D11A6842F040021A602A
:104F7000E3681BB341E0A368002BC3D1042384F88A
:104F80005130009513460A462046FFF794FE064628
:104F90005FE02268136823F04003136022681368FF
:104FA00023F480431360DAE7FCF7ACFEC01BA84291
:104FB00002D3B5F1FF3F50D1002D50D0E38F9BB20B
:104FC000002B33D023689A6812F0010FECD0A26B4B
:104FD0001B7B1370A36B0133A363E38F9BB2013B75
:104FE0009BB2E387EAE7FCF78DFEC01BA84202D321
:104FF000B5F1FF3F35D1002D35D0E38F9BB2ABB17A
:1050000023689A6812F0010FEDD0DA68A36B1A805A
:10501000A36B0233A363B4F83EC01FFA8CFC0CF1FF
:10502000FF3C1FFA8CFCA4F83EC0E6E73A4629464E
:105030002046FFF7BFFC08B120236365636D13B9F9
:10504000002600E00226012384F85130002384F872
:105050005030304603B0BDE8F0830326F3E7032663
:10506000F1E70326EFE70326EDE70226F1E77047B5
:1050700010B584B0044602685168936803F041009B
:10508000012867D013F0020F02D011F0800F68D111
:1050900013F4B07F68D011F0200F65D013F0400FEB
:1050A0000FD094F85100C0B203285FD0606D40F07B
:1050B0000400606500200090D06800909068009027
:1050C000009813F0200F0CD0606D40F00100606577
:1050D0000020029090680290106820F0400010605C
:1050E000029A13F4807F09D0636D43F0080363656F
:1050F0000023039323689B680393039B636D002B3A
:1051000032D02268536823F0E0035360012384F80F
:10511000513011F0030F31D02268536823F003039C
:105120005360E36C4BB1174A1A65E06CFDF7D1FB95
:1051300018B1636D43F040036365A36CA3B1114ADA
:105140001A65A06CFDF7C5FB70B1636D43F04003B9
:10515000636509E011F0400F94D0236C2046984716
:1051600002E0636C2046984704B010BD0023019311
:10517000D368019393680193019BF5E72046FFF7FD
:1051800076FFF1E78951000808B5806B0023C387DB
:10519000C386FFF76CFF08BD7047000090F83D30F4
:1051A000DBB2012B37D1022380F83D300268D3688F
:1051B00043F00103D3600368194A934220D0B3F14E
:1051C000804F1DD0A2F57C42934219D002F5806237
:1051D000934215D002F58062934211D002F57842D5
:1051E00093420DD002F57052934209D0A2F5943249
:1051F000934205D01A6842F001021A6000207047FD
:105200009A6802F00702062A07D01A6842F00102E3
:105210001A6000207047012070470020704700BFCF
:1052200000000140704770477047704710B5044652
:1052300003681A6912F0020F11D0DA6812F0020F37
:105240000DD06FF002021A610123037703689B6996
:1052500013F0030F70D0FFF7E6FF002323772368D6
:105260001A6912F0040F12D0DA6812F0040F0ED08F
:105270006FF004021A610223237723689B6913F4F9
:10528000407F5FD02046FFF7CEFF002323772368BF
:105290001A6912F0080F12D0DA6812F0080F0ED057
:1052A0006FF008021A61042323772368DB6913F087
:1052B000030F4ED02046FFF7B6FF00232377236865
:1052C0001A6912F0100F12D0DA6812F0100F0ED017
:1052D0006FF010021A61082323772368DB6913F447
:1052E000407F3DD02046FFF79EFF002323772368B1
:1052F0001A6912F0010F03D0DA6812F0010F36D1EB
:1053000023681A6912F0800F03D0DA6812F0800F58
:1053100034D123681A6912F0400F03D0DA6812F012
:10532000400F32D123681A6912F0200F03D0DA68D7
:1053300012F0200F30D110BDFFF774FF2046FFF7A9
:1053400073FF8AE72046FFF76DFF2046FFF76CFFEB
:105350009BE72046FFF766FF2046FFF765FFACE7B7
:105360002046FFF75FFF2046FFF75EFFBDE76FF0C7
:1053700001021A612046FCF7F3F9C1E76FF08002E1
:105380001A61204600F0A1F8C3E76FF040021A61ED
:105390002046FFF74AFFC5E76FF020021A6120465A
:1053A00000F092F8C7E700000368304A904212D03C
:1053B000B0F1804F0FD0A2F57C4290420BD002F5A5
:1053C0008062904207D002F58062904203D002F5DD
:1053D0007842904203D123F070034A681343234A72
:1053E00090422AD0B0F1804F27D0A2F57C42904263
:1053F00023D002F5806290421FD002F58062904275
:105400001BD002F57842904217D002F570529042BC
:1054100013D002F5806290420FD002F58062904274
:105420000BD0A2F59832904207D002F580629042EC
:1054300003D002F58062904203D123F44073CA681E
:10544000134323F080034A69134303608B68C362EC
:105450000B688362054B984203D003F58063984242
:1054600001D10B69036301234361704700000140D0
:1054700040B310B5044690F83D30F3B1022384F8F0
:105480003D30214651F8040BFFF78EFF012384F8CD
:10549000463084F83E3084F83F3084F8403084F859
:1054A000413084F8423084F8433084F8443084F842
:1054B000453084F83D30002010BD80F83C30FFF7C7
:1054C0006BFEDBE7012070477047704710B504465C
:1054D0000268136923F44053C1680B431361836866
:1054E00002691A4343691A43C3691A430168CB68C6
:1054F00023F4164323F00C031343CB600268536973
:1055000023F4407381690B4353610368314A93422A
:1055100006D002F58062934202D0FFF7D7F801E08F
:10552000FFF7E4F8E369B3F5004F29D00021031831
:1055300049411B1841F10001C90041EA5371DB00E8
:10554000181863684FEA83024FEA937341F1000130
:10555000FBF712FB204AA2FB00314909642303FB3D
:1055600011031B013233A2FB03235B0903F0F0029A
:1055700002EB011203F00F03216813448B6010BD8E
:105580000023021843EB0301121841F10001C90086
:1055900041EA5271D200101841F10001626892187C
:1055A0005B41FBF7E9FA0C4AA2FB0031490964238D
:1055B00003FB1103DB003233A2FB03235B095A0018
:1055C00002F4F87202EB011203F00703216813449E
:1055D0008B60D4E7001001401F85EB512DE9F843A3
:1055E00005460F4616469946DDF820802B681C6854
:1055F00037EA04040CBF01240024B4421FD1B8F1DF
:10560000FF3FF3D0B8F1000F05D0FCF77BFBA0EB18
:1056100009004045EAD92A68D36823F4D073D360DF
:105620002A68536923F001035361202385F83D3034
:1056300085F83E30002385F83C30032000E0002050
:10564000BDE8F88358B310B5044690F83D300BB36D
:10565000242384F83D302268D36823F40053D360B8
:105660002046FFF733FF2268136923F49043136148
:105670002268536923F02A0353612268D36843F4F4
:105680000053D36000202064202384F83D3084F848
:105690003E3010BD80F83C30FCF7D4FAD8E701204A
:1056A00070472DE9F04182B01E4690F83D30DBB2E4
:1056B000202B54D104460D469046002953D0002A91
:1056C00053D090F83C30012B51D0012380F83C306E
:1056D00000230364212380F83D30FCF713FB0746C9
:1056E000A4F82480A4F82680A368B3F5805F05D0D1
:1056F0004FF00008002384F83C3012E0236913B116
:105700004FF00008F6E7A8460025F3E738F8023B1B
:105710002268C3F308035360E28C92B2013A92B25A
:10572000E284E38C9BB273B100963B460022802159
:105730002046FFF753FFE0B9002DE7D015F8012B05
:1057400023685A60E8E700963B4600224021204645
:10575000FFF744FF78B9202384F83D3000E00220B1
:1057600002B0BDE8F0810120FAE70120F8E702204D
:10577000F6E70320F4E70320F2E7000000230133FB
:105780000C4A934211D80269002AF8DA036943F0FF
:105790000103036100230133064A934207D80269DB
:1057A00012F0010FF7D1002070470320704703204B
:1057B000704700BF400D030084B010B5044603A835
:1057C00080E80E00089B012B1FD1A36B23F48033CC
:1057D000A363E36823F4840323F04003E360E368F6
:1057E00023F44013E3600F9B012B09D02046FFF701
:1057F000C5FF069B012B1BD0BDE8104004B07047CD
:10580000E36843F48013E360F0E7E36843F04003A8
:10581000E3602046FFF7B2FF0C9B23B9A36B43F470
:105820008033A363E5E7A36B23F48033A363E0E74E
:10583000A36843F00603A360A36843F02003A360BA
:10584000DAE70000022A0AD00922C36823F4705361
:10585000C360C36843EA8223C36000207047234BC0
:105860000B44234A93422FD9224B0B44224A9342A2
:105870002CD9A1F57403A3F51053204A934227D9DC
:10588000A1F18373A3F5E7431D4A934222D31D4B35
:105890000B441D4A93421FD91C4B0B441C4A934294
:1058A0001CD31C4B0B441C4A934219D3A1F1B77370
:1058B000A3F55853194A934214D3194B0B44194A70
:1058C000934211D20722C0E70F22BEE70E22BCE7A7
:1058D0000D22BAE70C22B8E70B22B6E70A22B4E79A
:1058E0000922B2E70822B0E70622AEE7405327FFBD
:1058F000FF340C00401E1BFF3F420F007F4F120081
:1059000020D6130060B6E5FE5FE3160000D3CEFE9E
:1059100040771B00C05BB3FEC091210020753800AA
:10592000E05459FEE09C4100836843F0010383602A
:1059300000207047836823F00103836000207047D4
:1059400008B5C36823F0C043C360012909D069B911
:10595000C36843F08043C3603220FCF7D9F90020CC
:1059600008BDC36843F00053C360F5E70120F7E7C3
:10597000890141F02001016100230133054A93426E
:1059800005D8026912F0200FF7D1002070470320DC
:10599000704700BF400D0300102303610023013353
:1059A000054A934205D8026912F0100FF7D1002082
:1059B00070470320704700BF400D0300D0F8003847
:1059C0001943C0F8001800207047000084B02DE98A
:1059D000F041044607A880E80E00002306E003F12A
:1059E000400204EB82020021516001330E2BF6D9F4
:1059F000119F27BBD4F8043843F00203C4F80438DD
:105A0000A36B43F40013A363A36B23F40023A363EA
:105A1000A36B23F48023A3630023C4F8003E04F5A2
:105A20000065D4F80038C4F800380C9B012B14D161
:105A3000099B6BB900212046FFF7C0FF11E0A36B63
:105A400023F40013A363A36B43F40023A363E3E7EE
:105A500001212046FFF7B2FF03E003212046FFF7B4
:105A6000ADFF10212046FFF783FF804608B14FF0BD
:105A700001082046FFF790FF08B14FF0010800230E
:105A80002B616B61EB610AE0C3B94FF00060C2F8B3
:105A9000000900220A614FF67F328A6001330799BC
:105AA000994210D904EB431202F51061D2F80009B3
:105AB0000028E9DB0020C2F80009EAE74FF0904037
:105AC000C2F80009E5E700230AE0C3B14FF0904CAB
:105AD000C2F800CB002202614FF67F3282600133B0
:105AE000994211D904EB431202F53060D2F8006BF1
:105AF000002EEADB4FF0000CC2F800CBEAE74FF0D3
:105B0000006CC2F800CBE5E72B6923F480732B61AE
