:020000040800F2
:10000000000002204116000865400008E940000891
:10001000FD4000081D4100082541000800000000C7
:100020000000000000000000000000005117000860
:100030002D41000800000000E117000831410008D0
:1000400095160008951600089516000895160008E4
:1000500095160008951600082561010845610108FC
:100060006561010885610108A56101083541000845
:100070009516000841410008951600084D410008FA
:100080005941000865410008951600087D410008A7
:10009000894100088D41000891410008C5610108AF
:1000A0009516000895160008951600089516000884
:1000B0009516000895160008951600086524000896
:1000C000712400089516000895160008951600087A
:1000D0009516000895160008954100089516000829
:1000E0004962010895160008951600089516000843
:1000F000C5210008A14100089516000871410008BB
:100100009516000895160008B9210008BD410008A1
:10011000C9410008951600089516000895160008B4
:100120009516000895160008951600089516000803
:100130009516000800000000000000009516000859
:100140009516000895160008951600087D240008ED
:1001500095160008951600089516000895160008D3
:1001600095160008951600089516000895160008C3
:100170009516000869220008000000000000000039
:08018000951600089516000811
:1001C00001F0FF01102A2BDB10F0070F08D010F808
:1001D000013B013A8B422DD010F0070F42B3F6D10C
:1001E000F0B441EA012141EA014122F007047FF025
:1001F00000070023F0E80256083C85EA010586EA7C
:10020000010685FA47F5A3FA87F586FA47F6A5FAB7
:1002100087F68EB9EED1F0BC01F0FF0102F00702C3
:1002200032B110F8013B013A83EA010313B1F8D16E
:100230000020704701387047002D06BF354603384F
:10024000073815F0010F07D1013015F4807F02BF88
:10025000013015F4C03F0130F0BC0138704700BFD9
:10026000844641EA000313F003036DD1403A41D3C1
:1002700051F8043B40F8043B51F8043B40F8043B80
:1002800051F8043B40F8043B51F8043B40F8043B70
:1002900051F8043B40F8043B51F8043B40F8043B60
:1002A00051F8043B40F8043B51F8043B40F8043B50
:1002B00051F8043B40F8043B51F8043B40F8043B40
:1002C00051F8043B40F8043B51F8043B40F8043B30
:1002D00051F8043B40F8043B51F8043B40F8043B20
:1002E00051F8043B40F8043B51F8043B40F8043B10
:1002F000403ABDD2303211D351F8043B40F8043BB0
:1003000051F8043B40F8043B51F8043B40F8043BEF
:1003100051F8043B40F8043B103AEDD20C3205D3BF
:1003200051F8043B40F8043B043AF9D2043208D0B7
:10033000D2071CBF11F8013B00F8013B01D30B8829
:1003400003806046704700BF082A13D38B078DD007
:1003500010F003038AD0C3F10403D21ADB071CBFD9
:1003600011F8013B00F8013B80D331F8023B20F843
:10037000023B7BE7043AD9D3013A11F8013B00F87C
:10038000013BF9D20B7803704B7843708B78837004
:100390006046704700000000000000000000000000
:1003A000A2EB0300704700BF02780B78012A28BF38
:1003B0009A42F5D16DE9044540EA0104CDE90267AE
:1003C0006FF0000C4FEA447212B380EA010414F09B
:1003D000070F6AD100F0070420F0070004F00305BE
:1003E00021F007014FEAC505F0E8042314F0040FDB
:1003F000F1E804670CFA05F462EA040266EA04060E
:100400000AD063EA0403624667EA0407664603E02B
:10041000F0E80423F1E8046782FA4CF582EA060466
:10042000A4FA8CF46CBB83FA4CF583EA0705A5FAB1
:100430008CF595B950E9022351E9026782FA4CF52F
:1004400082EA0604A4FA8CF483FA4CF583EA0705E1
:10045000A5FA8CF52543DBD09CB92DBAB5FA85F405
:1004600024F0070427FA04F1DDE9026723FA04F314
:1004700003F0FF0001F0FF01FDE80445A0EB0100DF
:10048000704724BAB4FA84F424F0070426FA04F17D
:10049000DDE9026722FA04F202F0FF0001F0FF0139
:1004A000FDE80445A0EB0100704714F0030F3CD1B8
:1004B00010F0030428D150F8082B51F8083B82FAB9
:1004C0004CF582EA0305A5FA8CF55DB950F8042CC9
:1004D00051F8043C82FA4CF582EA0305A5FA8CF542
:1004E000002DE8D02DBAB5FA85F424F0070423FADC
:1004F00004F122FA04F202F0FF0001F0FF01FDE82E
:100500000445A0EB010070474FEAC40420F003004B
:1005100050F8082B21F0030151F8083B0CFA04F4C1
:1005200062EA040263EA0403C9E710F003041AD084
:10053000A1EB040120F00300E40750F8042B06D0DF
:100540000FD28B785FFAA2F4E41A06D12BB1CB78E4
:100550005FFAB2F4E41A00D11BB920465DF8104BE3
:10056000704701F1040150F8042BCC0721F003017E
:1005700051F8043B48D824D222F07F4482FA4CF54B
:1005800094EA1325A5FA8CF50AD165B951F8043B14
:1005900084EA0204B4EB036F0ED150F8042BEBE7AE
:1005A0004FEA132355E035F07F454DD10878FDE83B
:1005B0000445C0F1000070474FEA126203F0FF03E8
:1005C00047E002EA1C4482FA4CF594EA1345A5FA86
:1005D0008CF50AD165B951F8043B84EA0204B4EB06
:1005E000034F0CD150F8042BEBE74FEA134330E0F4
:1005F00015EA1C4528D10B884FEA124229E04FEA40
:10060000124203EA1C4324E002F0FF0482FA4CF594
:1006100094EA1365A5FA8CF50AD165B951F8043B43
:1006200084EA0204B4EB032F09D150F8042BEBE762
:100630004FEA13630DE015F0FF0F05D10B684FEA89
:10064000122223F07F4304E04FF00000FDE8044550
:10065000704712BA1BBA82FA4CF482EA0304A4FA75
:100660008CF5B5FA85F402FA04F203FA04F34FEAC2
:100670001260FDE80445A0EB136070470000000025
:1006800090F800F06DE9024520F007016FF0000CD2
:1006900010F0070491F820F040F049804FF000047A
:1006A0006FF00700D1E9002391F840F000F1080055
:1006B00082FA4CF2A4FA8CF283FA4CF3A2FA8CF38D
:1006C0004BBBD1E9022382FA4CF200F10800A4FAF4
:1006D0008CF283FA4CF3A2FA8CF3E3B9D1E9042348
:1006E00082FA4CF200F10800A4FA8CF283FA4CF37F
:1006F000A2FA8CF37BB9D1E9062301F1200182FA39
:100700004CF200F10800A4FA8CF283FA4CF3A2FA3E
:100710008CF3002BC6D0002A04BF04301A4612BA4C
:10072000B2FA82F2FDE8024500EBD2007047D1E94F
:10073000002304F00305C4F100004FEAC50514F0DE
:10074000040F91F840F00CFA05F562EA05021CBFAF
:1007500063EA050362464FF00004A9E781F0004117
:1007600002E000BF83F0004330B54FEA41044FEA96
:10077000430594EA050F08BF90EA020F1FBF54EA31
:10078000000C55EA020C7FEA645C7FEA655C00F0CD
:10079000E2804FEA5454D4EB5555B8BF6D420CDD9E
:1007A0002C4480EA020281EA030382EA000083EA21
:1007B000010180EA020281EA0303362D88BF30BDC1
:1007C00011F0004F4FEA01314FF4801C4CEA113117
:1007D00002D0404261EB410113F0004F4FEA033376
:1007E0004CEA133302D0524263EB430394EA050F01
:1007F00000F0A780A4F10104D5F1200E0DDB02FA70
:100800000EFC22FA05F2801841F1000103FA0EF203
:10081000801843FA05F359410EE0A5F120050EF1C9
:10082000200E012A03FA0EFC28BF4CF0020C43FAFA
:1008300005F3C01851EBE37101F0004507D54FF007
:10084000000EDCF1000C7EEB00006EEB0101B1F557
:10085000801F1BD3B1F5001F0CD349085FEA30009D
:100860004FEA3C0C04F101044FEA445212F5800FA8
:1008700080F09A80BCF1004F08BF5FEA500C50F145
:10088000000041EB045141EA050130BD5FEA4C0C28
:10089000404141EB0101013C28BFB1F5801FE9D285
:1008A00091F0000F04BF01460020B1FA81F308BFA8
:1008B0002033A3F10B03B3F120020CDA0C3208DD74
:1008C00002F1140CC2F10C0201FA0CF021FA02F14F
:1008D0000CE002F11402D8BFC2F1200C01FA02F1BF
:1008E00020FA0CFCDCBF41EA0C019040E41AA2BFE4
:1008F00001EB0451294330BD6FEA04041F3C1CDAAC
:100900000C340EDC04F11404C4F1200220FA04F0CB
:1009100001FA02F340EA030021FA04F345EA030175
:1009200030BDC4F10C04C4F1200220FA02F001FA37
:1009300004F340EA0300294630BD21FA04F02946B9
:1009400030BD94F0000F83F4801306BF81F4801152
:100950000134013D4EE77FEA645C18BF7FEA655CC5
:1009600029D094EA050F08BF90EA020F05D054EA97
:10097000000C04BF1946104630BD91EA030F1EBF9C
:100980000021002030BD5FEA545C05D140004941A0
:1009900028BF41F0004130BD14F580043CBF01F593
:1009A000801130BD01F0004545F0FE4141F4700179
:1009B0004FF0000030BD7FEA645C1ABF1946104654
:1009C0007FEA655C1CBF0B46024650EA013406BF55
:1009D00052EA033591EA030F41F4002130BD00BF14
:1009E00090F0000F04BF0021704730B54FF48064D1
:1009F00004F132044FF000054FF0000150E700BF52
:100A000090F0000F04BF0021704730B54FF48064B0
:100A100004F1320410F0004548BF40424FF000019D
:100A20003EE700BF42004FEAE2014FEA31014FEAE0
:100A300002701FBF12F07F4393F07F4F81F060512F
:100A4000704732F07F4208BF704793F07F4F04BF7A
:100A500041F40021704730B54FF4607401F0004557
:100A600021F000411CE700BF50EA010208BF7047B7
:100A700030B54FF000050AE050EA010208BF7047A8
:100A800030B511F0004502D5404261EB41014FF411
:100A9000806404F132045FEA915C3FF4D8AE4FF019
:100AA00003025FEADC0C18BF03325FEADC0C18BFFC
:100AB000033202EBDC02C2F1200300FA03FC20FA4D
:100AC00002F001FA03FE40EA0E0021FA02F114449A
:100AD000BDE600BF70B54FF0FF0C4CF4E06C1CEAB3
:100AE00011541DBF1CEA135594EA0C0F95EA0C0F24
:100AF00000F0DEF82C4481EA030621EA4C5123EA97
:100B00004C5350EA013518BF52EA033541F48011C5
:100B100043F4801338D0A0FB02CE4FF00005E1FB78
:100B200002E506F00042E0FB03E54FF00006E1FBC2
:100B300003569CF0000F18BF4EF0010EA4F1FF0405
:100B4000B6F5007F64F5407404D25FEA4E0E6D4145
:100B500046EB060642EAC62141EA55514FEAC52056
:100B600040EA5E504FEACE2EB4F1FD0C88BFBCF5D2
:100B7000E06F1ED8BEF1004F08BF5FEA500E50F183
:100B8000000041EB045170BD06F0004646EA010149
:100B900040EA020081EA0301B4EB5C04C2BFD4EB7B
:100BA0000C0541EA045170BD41F480114FF0000E74
:100BB000013C00F3AB8014F1360FDEBF002001F0E2
:100BC000004170BDC4F10004203C35DA0C341BDC5C
:100BD00004F11404C4F1200500FA05F320FA04F02E
:100BE00001FA05F240EA020001F0004221F0004162
:100BF00010EBD37021FA04F642EB06015EEA430ED5
:100C000008BF20EAD37070BDC4F10C04C4F1200504
:100C100000FA04F320FA05F001FA04F240EA0200B7
:100C200001F0004110EBD37041F100015EEA430E88
:100C300008BF20EAD37070BDC4F1200500FA05F2A8
:100C40004EEA020E20FA04F301FA05F243EA020327
:100C500021FA04F001F0004121FA04F220EA020036
:100C600000EBD3705EEA430E08BF20EAD37070BD7C
:100C700094F0000F0FD101F00046400041EB01015C
:100C800011F4801F08BF013CF7D041EA060195F03E
:100C9000000F18BF704703F00046520043EB0303F8
:100CA00013F4801F08BF013DF7D043EA06037047E5
:100CB00094EA0C0F0CEA135518BF95EA0C0F0CD0F0
:100CC00050EA410618BF52EA4306D1D181EA030136
:100CD00001F000414FF0000070BD50EA410606BF30
:100CE0001046194652EA430619D094EA0C0F02D175
:100CF00050EA013613D195EA0C0F05D152EA0336BA
:100D00001CBF104619460AD181EA030101F00041D7
:100D100041F0FE4141F470014FF0000070BD41F020
:100D2000FE4141F4780170BD70B54FF0FF0C4CF4FA
:100D3000E06C1CEA11541DBF1CEA135594EA0C0F19
:100D400095EA0C0F00F0A7F8A4EB050481EA030E66
:100D500052EA03354FEA013100F088804FEA03334D
:100D60004FF0805545EA131343EA12634FEA02221B
:100D700045EA111545EA10654FEA00260EF00041DC
:100D80009D4208BF964244F1FD0404F5407402D22E
:100D90005B084FEA3202B61A65EB03055B084FEABF
:100DA00032024FF480104FF4002CB6EB020E75EBBC
:100DB000030E22BFB61A754640EA0C005B084FEAE4
:100DC0003202B6EB020E75EB030E22BFB61A754661
:100DD00040EA5C005B084FEA3202B6EB020E75EBAC
:100DE000030E22BFB61A754640EA9C005B084FEA24
:100DF0003202B6EB020E75EB030E22BFB61A754631
:100E000040EADC0055EA060E18D04FEA051545EA1F
:100E100016754FEA06164FEAC30343EA52734FEAC8
:100E2000C2025FEA1C1CC0D111F4801F0BD141EA41
:100E300000014FF000004FF0004CB6E711F4801FA6
:100E400004BF01430020B4F1FD0C88BFBCF5E06F86
:100E50003FF6AFAEB5EB030C04BFB6EB020C5FEA96
:100E6000500C50F1000041EB045170BD0EF0004EEB
:100E70004EEA113114EB5C04C2BFD4EB0C0541EA1D
:100E8000045170BD41F480114FF0000E013C90E61A
:100E900045EA060E8DE60CEA135594EA0C0F08BFDE
:100EA00095EA0C0F3FF43BAF94EA0C0F0AD150EADD
:100EB00001347FF434AF95EA0C0F7FF425AF104670
:100EC00019462CE795EA0C0F06D152EA03353FF498
:100ED000FDAE1046194622E750EA410618BF52EA15
:100EE00043067FF4C5AE50EA41047FF40DAF52EAE9
:100EF00043057FF4EBAE12E74FF0FF3C06E000BF86
:100F00004FF0010C02E000BF4FF0010C4DF804CD92
:100F10004FEA410C7FEA6C5C4FEA430C18BF7FEA52
:100F20006C5C1BD001B050EA410C0CBF52EA430C80
:100F300091EA030F02BF90EA020F0020704710F100
:100F4000000F91EA030F58BF994208BF90422CBF8F
:100F5000D8176FEAE37040F0010070474FEA410C88
:100F60007FEA6C5C02D150EA013C07D14FEA430CA6
:100F70007FEA6C5CD6D152EA033CD3D05DF8040B17
:100F8000704700BF8446104662468C461946634649
:100F900000E000BF01B5FFF7B7FF002848BF10F120
:100FA000000F01BD4DF808EDFFF7F4FF0CBF012065
:100FB00000205DF808FB00BF4DF808EDFFF7EAFFE1
:100FC00034BF012000205DF808FB00BF4DF808ED9C
:100FD000FFF7E0FF94BF012000205DF808FB00BF91
:100FE0004DF808EDFFF7CEFF94BF012000205DF81B
:100FF00008FB00BF4DF808EDFFF7C4FF34BF012028
:1010000000205DF808FB00BF4FEA410C7FEA6C5CF2
:1010100002D150EA013C0AD14FEA430C7FEA6C5CF2
:1010200002D152EA033C02D14FF0000070474FF06A
:10103000010070474FEA410212F5001215D211D596
:101040006FF47873B3EB625212D94FEAC12343F0C5
:10105000004343EA505311F0004F23FA02F018BF47
:10106000404270474FF00000704750EA013005D110
:1010700011F0004008BF6FF0004070474FF00000D3
:10108000704700BF4A0011D212F5001211D20DD5DF
:101090006FF47873B3EB62520ED44FEAC12343F07E
:1010A000004343EA505323FA02F070474FF0000028
:1010B000704750EA013002D14FF0FF3070474FF0D7
:1010C000000070474FEA4102B2F1E04324BFB3F59C
:1010D000001CDCF1FE5C0DD901F0004C4FEAC002AF
:1010E0004CEA5070B2F1004F40EB830008BF20F093
:1010F0000100704711F0804F21D113F13872BCBF4D
:1011000001F00040704741F480114FEA5252C2F1A1
:101110001802C2F1200C10FA0CF320FA02F018BFEA
:1011200040F001004FEAC1234FEAD32303FA0CFC3D
:1011300040EA0C0023FA02F34FEA4303CCE77FEACC
:10114000625307D150EA01331EBF4FF0FE4040F416
:101150004000704701F0004040F0FE4040F40000C5
:10116000704700BF80F0004002E000BF81F0004106
:1011700042001FBF5FEA410392EA030F7FEA226C3D
:101180007FEA236C6AD04FEA1262D2EB1363C1BFCD
:10119000D218414048404140B8BF5B42192B88BF3C
:1011A000704710F0004F40F4000020F07F4018BF5F
:1011B000404211F0004F41F4000121F07F4118BF7F
:1011C000494292EA030F3FD0A2F1010241FA03FC27
:1011D00010EB0C00C3F1200301FA03F100F000430F
:1011E00002D5494260EB4000B0F5000F13D3B0F1D7
:1011F000807F06D340084FEA310102F10102FE2A46
:1012000051D2B1F1004F40EBC25008BF20F00100B5
:1012100040EA03007047490040EB0000013A28BF54
:10122000B0F5000FEDD2B0FA80FCACF1080CB2EBD7
:101230000C0200FA0CF0AABF00EBC2505242184355
:10124000BCBFD0401843704792F0000F81F40001FA
:1012500006BF80F400000132013BB5E74FEA4103CD
:101260007FEA226C18BF7FEA236C21D092EA030F39
:1012700004D092F0000F08BF0846704790EA010FB3
:101280001CBF0020704712F07F4F04D1400028BFE0
:1012900040F00040704712F100723CBF00F50000C2
:1012A000704700F0004343F0FE4040F400007047F8
:1012B0007FEA226216BF08467FEA236301464202A4
:1012C00006BF5FEA412390EA010F40F480007047B7
:1012D0004FF0000304E000BF10F0004348BF40425D
:1012E0005FEA000C08BF704743F0964301464FF099
:1012F00000001CE050EA010208BF70474FF00003F5
:101300000AE000BF50EA010208BF704711F0004335
:1013100002D5404261EB41015FEA010C02BF844605
:101320000146002043F0B64308BFA3F18053A3F564
:101330000003BCFA8CF2083AA3EBC25310DB01FAAB
:1013400002FC634400FA02FCC2F12002BCF1004F2F
:1013500020FA02F243EB020008BF20F001007047C0
:1013600002F1200201FA02FCC2F1200250EA4C0014
:1013700021FA02F243EB020008BF20EADC7070475A
:101380007BB972B90029BEBF00204FF0004106E0D2
:1013900008BF00281CBF6FF000414FF0FF3000F085
:1013A0002DB9ADF1080C6DE904CE002909DB002B45
:1013B0001ADB3BF041FEDDF804E0DDE9022304B076
:1013C0007047404261EB4101002B1BDB3BF034FED8
:1013D000DDF804E0DDE9022304B0404261EB4101A5
:1013E000524263EB43037047524263EB43033BF0CB
:1013F00023FEDDF804E0DDE9022304B0404261EBA6
:1014000041017047524263EB43033BF015FEDDF8A8
:1014100004E0DDE9022304B0524263EB430370476A
:1014200053B94AB9002908BF00281CBF4FF0FF314B
:101430004FF0FF3000F0E2B8ADF1080C6DE904CEDA
:101440003BF0FAFDDDF804E0DDE9022304B070476B
:1014500000F1340191E838009C46A6464CF8045D42
:1014600090E8FF0FE54600BD90EC210B704700BFF0
:1014700080EC210B704700BF90EC200B704700BF41
:1014800080EC200B704700BFD0EC200B704700BFF2
:10149000C0EC200B704700BFF0EC0201F0EC021131
:1014A000F0EC0221F0EC0231F0EC0241F0EC0251E0
:1014B000F0EC0261F0EC0271F0EC0281F0EC0291D0
:1014C000F0EC02A1F0EC02B1F0EC02C1F0EC02D1C0
:1014D000F0EC02E1F0EC02F1704700BFE0EC020139
:1014E000E0EC0211E0EC0221E0EC0231E0EC024120
:1014F000E0EC0251E0EC0261E0EC0271E0EC028110
:10150000E0EC0291E0EC02A1E0EC02B1E0EC02C1FF
:10151000E0EC02D1E0EC02E1E0EC02F1704700BF48
:10152000B0FC0181B0FC0191B0FC01A1B0FC01B1A3
:10153000704700BFA0FC0181A0FC0191A0FC01A1AB
:10154000A0FC01B1704700BFEC4600B52DE900508A
:101550002DE9FF1F4FF000032DE90C0001A93CF01D
:101560001FF8DDF840E012B0704700BFEC4600B550
:101570002DE900502DE9FF1F4FF000032DE90C006D
:1015800001A93CF047F8DDF840E012B0704700BF19
:10159000EC4600B52DE900502DE9FF1F4FF0000388
:1015A0002DE90C0001A93CF057F8DDF840E012B03D
:1015B000704700BFEC4600B52DE900502DE9FF1F34
:1015C0004FF000032DE90C0001AB3CF019F8DDF8F9
:1015D00040E012B0704700BFEC4600B52DE9005066
:1015E0002DE9FF1F4FF000032DE90C0001AA3CF08C
:1015F0008DF8DDF840E012B0704700BF704700BFC3
:1016000010B5054C237833B9044B13B10448AFF33C
:1016100000800123237010BDA80F002000000000EF
:101620007CE0030808B5034B1BB103490348AFF343
:10163000008008BD00000000AC0F00207CE0030823
:10164000DFF838D0002103E00D4B5B5843500431E4
:101650000C480D4B42189A42F6D30C4A02E0002384
:1016600042F8043B0A4B9A42F9D302F017FE13F0FA
:10167000F1F832F027F813F04BF970470000022020
:101680001C3F050800000020A40F0020A80F002028
:10169000D4F90020FEE7000008480068006880F3E5
:1016A00008884FF0000080F3148862B661B6BFF37B
:1016B0004F8FBFF36F8F00DF00BF000008ED00E029
:1016C000DFF80C00016841F4700101607047000010
:1016D00088ED00E00E4B1B6882B0002201330192BE
:1016E00008D04FF0500383F31188BFF36F8FBFF31F
:1016F0004F8FFEE74FF0500383F31188BFF36F8FD6
:10170000BFF34F8F019B002BFCD002B0704700BF8E
:101710001402002030B421F00101094C40F80C4CB7
:101720004FF080756FF0020340F8045C40F8081C2D
:1017300040F8202C40F8243C30BC4438704700BFAF
:10174000D5160008000000000000000000000000A6
:10175000074B19680868B0E8F04F80F30988BFF3B9
:101760006F8F4FF0000080F311887047AFF3008057
:10177000AC9100204FF0500383F31188BFF36F8FBB
:10178000BFF34F8F0A4A13680133012B136000D057
:101790007047084B1B6813F0FF0FF9D04FF0500350
:1017A00083F31188BFF36F8FBFF34F8FFEE700BF46
:1017B0001402002004ED00E0084A136843B94FF01A
:1017C000500383F31188BFF36F8FBFF34F8FFEE792
:1017D000013B13600BB983F311887047140200209A
:1017E000EFF30980BFF36F8F154B1A681EF0100FCF
:1017F00008BF20ED108A20E9F04F10602DE90900A4
:101800004FF0500080F31188BFF34F8FBFF36F8FFD
:1018100009F052FB4FF0000080F3118809BC1968F1
:101820000868B0E8F04F1EF0100F08BFB0EC108A47
:1018300080F30988BFF36F8F704700BFAFF300805C
:10184000AC91002008B54FF0500383F31188BFF32B
:101850006F8FBFF34F8F09F0CFF918B1034B4FF0E3
:1018600080521A60002383F3118808BD04ED00E064
:1018700030B4094A094D0A4B0A4C0B48002111604B
:1018800029601B68A4FB03139B09013B072103602C
:1018900030BC1160704700BF10E000E018E000E0CD
:1018A000EC040020D34D621014E000E0394B3A4ABA
:1018B0001968914240D01A68384B9A4233D010B51B
:1018C000374B384C1A78384982B0D2B2FF20019297
:1018D00018701B78DBB28DF803309DF803309DF84B
:1018E000032003F05003072023701406086048BF4C
:1018F00006220FD59DF803305B00DBB28DF8033074
:101900009DF803000006134602F1FF32F2D4032BC8
:101910001BD00B604FF0500383F31188BFF36F8F20
:10192000BFF34F8FFEE74FF0500383F31188BFF3EF
:101930006F8FBFF34F8FFEE74FF0500383F3118893
:10194000BFF36F8FBFF34F8FFEE7019A1448174B19
:10195000D2B24FF440740C6002701A6842F4700204
:101960001A601A6842F070421A60FFF781FF104B4C
:1019700000241C60FFF7A4FE0E4A136843F04043A6
:101980001360FFF789FE09F097FAFFF7A3FE2046E0
:1019900002B010BD00ED00E071C20F4170C20F41F6
:1019A00000E400E0C40F0020C80F002020ED00E09C
:1019B0001402002034EF00E0EFF305830F2B0ED963
:1019C0001049114A5B5C12789A4208D94FF05003D3
:1019D00083F31188BFF36F8FBFF34F8FFEE70B4B7D
:1019E0000B4A1B68126803F4E063934208D94FF076
:1019F000500383F31188BFF36F8FBFF34F8FFEE760
:101A0000704700BFF0E300E0C40F00200CED00E0E1
:101A1000C80F002001207047B6EE000A704700BFD3
:101A2000B6EE000A704700BF9FED010A704700BF85
:101A30005E74513F9FED010A704700BF5E74513FD5
:101A400090F82C00A0F10200B0FA80F04009704735
:101A5000A0F10400FFF7F4BF30B5234BDFED237A8C
:101A600004460D460FCB85B0B4EEE70A0DF1100C1D
:101A7000F1EE10FA0CE90F0030D5DFED1D7AB4EE6F
:101A8000E70AF1EE10FA2CD5F3EE047AB4EEE70A89
:101A9000F1EE10FA54BF012300239A002DB104A9DE
:101AA00001EB830353F8103C2B60A38CB3F5AA6FB2
:101AB0000ED06069E2844FF4AA630022A38484F804
:101AC0002C2010B1218B04F0C1FA012005B030BDEB
:101AD000E38C9342EDD1012005B030BD0C220323ED
:101AE000DCE708220223D9E798E003080000A042BF
:101AF0000000204290F82C302BB1C36923B11B6940
:101B0000028C1A4200D07047002380F82C307047B6
:101B10002DE9F04F074600F10C09334E054641F41C
:101B2000004B99E803008FB027F828BF00239646A2
:101B30004FF0010A4FF47A720DF1200806F10C0CF7
:101B4000CDE90CA20B930A9788E80300BCE80F00CC
:101B50006C460FC49CE80F0084E80F0096E80E0066
:101B6000A868744614F0F8FE20B9002630460FB07D
:101B7000BDE8F08F50460BF025FC99E8030005F115
:101B80002A034FF47A7206F10C0CCDE90A730D9218
:101B9000CDF830A088E80300BCE80F006F460FC7FF
:101BA0009CE80F00A5F828B087E80F004FF6FF7CEF
:101BB00096E80E00A868A5F82AC014F0CDFE0646E7
:101BC0000028D2D050460BF0FDFB6B8D4BF6EF6238
:101BD0009342CAD0002CC9D0C3F30A0330462380F5
:101BE0000FB0BDE8F08F00BF94E2030810B582B0DB
:101BF00001AA00210446FFF78BFF88B120460DF1B2
:101C000006024FF40061FFF783FF48B1BDF80600FC
:101C1000BDF80430000400F40000184302B010BD09
:101C20004FF0FF3002B010BD2DE9F04106468EB0F6
:101C3000174FC0688C4606F1280331690A934FF4A8
:101C40007A750D95002408AB4FF0010807F10C05DB
:101C5000CDE90B48964683E803000FCD6C460FC4D0
:101C600095E80F00CEF30A054CEA0505358584E8B2
:101C70000F0097E80E00B06814F06EFE044610B135
:101C800040460BF09FFB20460EB0BDE8F08100BF40
:101C900094E2030890F82C30022B00F0838010B5FA
:101CA0000446406982B018B1218B002204F0CEF9BD
:101CB00028200BF087FB6069002384F82C3018B1D2
:101CC000218B012204F0C2F9142009F0D9FCA28C66
:101CD0004FF480512046FFF7A7FF10B9002002B053
:101CE00010BDA28C4FF480512046FFF79DFF0028C5
:101CF000F4D0A28C4FF480512046FFF795FF0028C6
:101D0000ECD0A28C4FF480512046FFF78DFF0028C5
:101D1000E4D0A28C4FF480512046FFF785FF0028C5
:101D2000DCD0E28C4FF4C0512046FFF77DFF002845
:101D3000D4D064200BF046FB012384F82C300DF145
:101D400006024FF480512046FFF7E2FE0028C5D07E
:101D5000A28CBDF806309A42C0D10DF106024FF4B4
:101D6000C0512046FFF7D4FE0028B7D0E28CBDF862
:101D700006309A42B2D12046FFF738FF0028ADD195
:101D8000EFF3108372B694F82C20012A04BF0222CC
:101D900084F82C2083F3108894F82C00831E58427A
:101DA00058419CE701207047704700BF704700BF53
:101DB0000448054A036D1B68934200D170475030B8
:101DC000184700BF8C8C0020AD1D00080448054A50
:101DD000836B1B68934200D170473830184700BFAF
:101DE000148B0020A91D0008494A136813F004034E
:101DF00031D0F0B5474E33682DED028B03F006036A
:101E0000062B85B004D0002005B0BDEC028BF0BDE0
:101E1000414F3B6803F00603062BF4D10546D06B17
:101E20000C460BF087FD3D48FFF70AFEA8B93C4879
:101E3000FFF706FE002833D135483649364A6FF0A1
:101E4000040404606FF0260301200B60136005B0EA
:101E5000BDEC028BF0BD18467047F26B3149684605
:101E60000DF0F6FBFA6B2F499DED008A02A80DF0EC
:101E7000EFFB9DF80430002BD9D09DF80C30002BDF
:101E8000D5D09DED027A2B7BF1EE487A77EEC77ABA
:101E90005BB3C5ED007A85ED018A85ED027AC6E770
:101EA0001C4B2149DA6C68460DF0D2FB1A4B1E49D7
:101EB000DA6C9DED008A02A80DF0CAFB9DF8043093
:101EC000002BB9D09DF80C30002BB5D09DED027AD7
:101ED000237BF1EE487A77EEC77A7BB1C4ED007AC6
:101EE00084ED018A84ED027AA6E70123C5ED007A2C
:101EF00085ED018A85ED027A2B7398E70123C4ED05
:101F0000007A84ED018A84ED027A237394E700BF9E
:101F10000020014000210140002201400C8C0020E3
:101F20003C8C0020308D0020E08E002008B502F0AF
:101F300009FB01F041FA084A084B1178FF2918BF44
:101F40001346DA78032A00D0FEE71A79062AFBD175
:101F50005B79382BF8D108BD0078FF1F0000002006
:101F600070B582B002F0E6F901F0DAF901F032FE64
:101F700001F082FE01F056F801F052F900F078FE0F
:101F800000F0AEFE01F008FC01F0CAFE01F0F6F828
:101F900000F0DEFE00F028FF00220121062003F001
:101FA00005FA062003F03AFA00220121072003F087
:101FB000FDF9072003F032FA00220121082003F086
:101FC000F5F9082003F02AFA00220121092003F084
:101FD000EDF9092003F022FA002201210A2003F082
:101FE000E5F90A2003F01AFA00220121172003F074
:101FF000DDF9172003F012FA00220121282003F056
:10200000D5F9282003F00AFA002205214D2003F01B
:10201000CDF94D2003F002FA002211462C2003F0E6
:10202000C5F92C2003F0FAF9544C44F28913E35C0F
:10203000002B3AD144F28A13E35C002B42D144F2E4
:102040009913E35C002B4AD144F29813E35C4BB143
:1020500044F28713E35C072B00F0858044F2CC2325
:102060000122E254464B4748DA6842F00102DA6046
:10207000DA6842F00202DA609A6842F080029A60FE
:102080004FF48051002203F0E1FF28200BF09AF971
:1020900001224FF480513B4803F0D8FF44F6206002
:1020A0000BF090F9012002B070BD374B44F28C1256
:1020B0001B68A2585A6001F041FC44F28A13E35CA9
:1020C000002BBCD0314B44F290121B68A2585A60CE
:1020D00001F050FC44F29913E35C002BB4D02C4D7A
:1020E000D5E906016E46002386E803000122194661
:1020F000304613F023FED5E90801002386E80300EB
:1021000001221946304613F019FED5E90A010023D1
:1021100086E8030001221946304613F00FFE012025
:1021200009F0AEFAAB692BB11B69AA8B1A4214BF36
:1021300001230023286A28B10269A98C11420CBF2F
:1021400000200220AA6A2AB11269A98D114218BF83
:1021500043F00403184340F068000E4BC0B21870FF
:1021600002F05CF970E744F28813E35C072B3FF45C
:1021700079AF44F2CC230122E25473E7609300204C
:10218000002004E0000402406004002064040020F9
:10219000848B002010E90020034B834200D070475D
:1021A000024814F01BBC00BF48EF00201C91002027
:1021B000FFF7F2BFFFF7F0BF014811F0DDBB00BF32
:1021C000909000201E4B1F491B681F486FF00102B2
:1021D00070B51A610A680578C2F30014A54220D0D0
:1021E0001A4D04702B6803F52453043302F01002D7
:1021F0002B604AB1164A40F2D663CB638B634B63C4
:10220000D3639363536370BD1248134B44F2E022CF
:10221000825C1A7012F0CEFA104B4D22C3F8002ED9
:1022200070BD0F484FF4002200230DF047F9BDE8C0
:1022300070400C484FF4002200230DF03FB900BF5E
:10224000B0E9002000040140D08700202491002044
:102250000000014060930020CC0F002000E100E06E
:10226000308D0020E08E00202DE9F04F8BB002ADC4
:1022700006ACDFF8E891002328462146C5E9023381
:10228000C4E90133D9F800606B6002930693E36000
:10229000FFF7AAFD002800F0C680694B5B6C13F4C1
:1022A000004307D19DF81420002A00F0A880029373
:1022B000C5E90133634B5B6C13F4004307D19DF810
:1022C0002420002A00F094800693C4E901330DF124
:1022D000100898E8030095E80C0008AF8DE80300AB
:1022E0005948A6F256610DF0FBFA97E8030094E80E
:1022F0000C008DE80300554831460DF0F1FA3146E7
:10230000534813F01DFA534B534A596A490089B296
:1023100013689B07FCD54F4BDFF844A15B6A9AF822
:102320000020DFF82CB15B009BB2581A5AB144F27E
:10233000143244F2183C4BF8021044F21C324BF8B1
:102340000C304BF8020044F2203221465BF8023098
:10235000834238BF034628464BF80230FFF744FD5E
:10236000002853D098E803008DE8030006F50A51D1
:1023700095E80C0034482E310DF0E8FB97E8030097
:102380008DE8030006F52455043594E80C002F4829
:1023900029460DF0DBFB06F5E9412B4836310DF0FF
:1023A0003FFC06F5F64129480C310DF039FCD9F80F
:1023B00000309D4209D02448102200230DF07EF801
:1023C0002248102200230DF079F844F2E0231BF894
:1023D00003301BB19AF8003083F0010344F2E0218E
:1023E00000220BF801308AF800200BB0BDE8F08F16
:1023F00001230692C4E901228DF8243067E7012306
:102400000292C5E901228DF8143053E70E484FF0CF
:10241000007200230DF052F80C484FF000720023B8
:102420000DF04CF89EE708484FF0007200230DF0C5
:1024300045F806484FF0007200230DF03FF82CE7F6
:102440000000014000040140308D0020E08E00209B
:1024500060930020001C00400021014024910020D6
:10246000CC0F0020014803F01FBF00BFC8F80020B8
:10247000014804F0E7BA00BFC8F80020014804F0A2
:102480003BBC00BF58EB002082B030B48AB001AC36
:1024900084E807000068029A039D116802680D93A2
:1024A00022F001020260C4682A680E9D24F0010433
:1024B000C460446944F0010444616FF001040461A4
:1024C00043620B6823400B60CB682340CB604B69B1
:1024D00043F001034B610C614D62136823401360AC
:1024E000D3682340D360536943F0010353610F9BCA
:1024F0001461536205680C681368049045F0010587
:1025000044F0010443F00103CDE90512CDE907547D
:102510000993EFF3108372B6DDE90410DDE90625B7
:10252000089C0D6009990460116083F310880AB05B
:1025300030BC02B0704700BF2DE9F04790B0EFF318
:10254000108872B6364B374F374E3C68D6F800903D
:10255000D4F808A0DFF8DCE0344D93E807000DF173
:10256000100C0C338CE8070093E807002AF44013A2
:10257000A360D9F8083007AC84E807009CE807009E
:1025800003EA0E03C9F80830D5F800900AABD9F871
:1025900008C083E8070094E807000CEA0E04C9F8B5
:1025A000084010AC04E9070054E902018DE803007B
:1025B0004FF000028DF8082093E807000D9BFFF70D
:1025C00063FF396832688868DFF86CC02B68184D83
:1025D00040F4801088609468286844EA0C04946091
:1025E0009F686FF004066FF002056FF0200447EA61
:1025F0000C076FF0010C9F600E6016601E600D608E
:1026000015601D600C6014601C60C0F810C0C368C9
:1026100043F00103C36088F3108810B0BDE8F08771
:10262000A8E00308A8F2002060F20020F0F20020E9
:10263000B0E90020FFFFCFCF0000101010B5382107
:10264000044628F093FB204610BD00BF10B5502172
:10265000044628F08BFB204610BD00BF2DE9F04F4B
:10266000D24AD34FD34E3A6002F1180332604FF48E
:102670000052D14CD14D3A824FF48042D049D148DA
:102680007B607360328204230022C4E900527A61C5
:102690003A8387F82C207261328386F82C20F96007
:1026A000F160F861F061C84AC848BC6093B0B4609A
:1026B0000F213B8433840DF015FE0423C24AC44825
:1026C00019460DF00FFEC34AC349002028F0C8FA8E
:1026D000C2480DF043FEC2480DF040FEDFF8FCA2F8
:1026E000DFF8E892BB4ABF49B54DDFF85883DFF801
:1026F00058B3002028F0B4FA8DE88006AC4B9FED6B
:10270000BA0ABA49BA4806220CF022FD0AF1500270
:1027100009F13803CDE901329FEDB30AA54BB54964
:1027200000960622B4480CF013FD4FF40073109588
:10273000ADF8443010AA92E803000DF1100A2022EF
:102740000694ADF83C20CDF838808AE803000DF1FE
:10275000380999E8030002AF1022ADF83420CDF813
:10276000308087E803000CAE96E803008DE8030094
:102770000A95ADF82C300AAB0CCBA049A0480DF05F
:102780009DFE4FF400431095ADF8443010AA92E836
:10279000030080220694ADF83C20CDF838808AE80A
:1027A000030099E803004022ADF83420CDF83080D2
:1027B00087E8030096E803008DE803000A95ADF86A
:1027C0002C300AAB0CCB8F498F48904D904F0DF0B9
:1027D00075FE0023CBE90233CBE90633ABF80430B6
:1027E000ABF814308B4B8C49CBF80010012200243D
:1027F000CBF810108BF806208BF8162003F180061A
:1028000040220021184631F0EFFA034640330222FD
:102810000021B34245608560C7604461C46244637F
:10282000C4630174826202638263E9D1DFF81CC26F
:10283000DFF81CE2794F9FED7A5ADFED7A5A9FED6F
:102840007A6ADFED7A6A9FED7A7A7A4BDFF8049242
:1028500000226146032001264FF4806AC1F844A09B
:1028600000244FF07E55F0EE007A4FF07A5843F690
:10287000501A4D630D64C1F850800F6008764E7693
:10288000C1F81C9081ED085AC1ED095A81ED0B6A1F
:10289000C1ED0C6A81ED0E7A8A64C1ED0A7AC1ED50
:1028A000137A81F83C404C65DFF8AC8143F8B45CA6
:1028B00043F8B05C43F8AC5C43F8985C5144FF25A6
:1028C00043F8A48C03F89C5C03F8B84C03F8B74CAD
:1028D00003F8A04C03F8A86C03F89F6C03F89E6CF7
:1028E00003F89D6C43F8942C714503F8905C43F811
:1028F000848C514D43F8784C4FF0020803F8744C27
:1029000003F8684C03F8604C03F8584C03F8504C3B
:1029100003F8144C03F8124C43F88C9C43F8889C41
:1029200043F8702C43F86C2C43F8642C43F85C2C6F
:1029300043F8542C43F84C2C43F8482C43F8442CCF
:1029400043F8402C43F83C2C43F8382C43F8342C03
:1029500043F8302C43F82C2C43F8282C43F8242C33
:1029600043F8202C43F81C2C43F8182C03F8136C64
:1029700043F8805C43F8102C43F80C2C43F8042CEB
:1029800043F8088C53447FF467AF2C4F2C4DCDF89F
:102990000CC0DFF85CA0DFF868901E4ACDF820B0CC
:1029A0004FF07C5C07F12C0358E000BFF4E2030811
:1029B0000C8C00203C8C00201C91002048EF002053
:1029C00000080240000C024018E30308148B0020AA
:1029D0004C8B002010020020CD1D00088C8C0020A4
:1029E000DC8C0020B11D0008FFFFF944DCEA002068
:1029F000308D0020B0E90020E08E002064EA002045
:102A0000D4870020ECE900207489002000007A447B
:102A10000118CF3A9C90002070E90308C4E903082C
:102A2000ABAA2A3EABAAAA3E9A99993F0000807FA2
:102A30000AD7233C804E0020000020C1B0030020B4
:102A400028910020000402406C8C002030150020EA
:102A5000D08700200000A04100002041CDE906738E
:102A6000029200900595CDF810A0CDF80490434651
:102A7000C5ED017AC5ED117A2C602C64C5F808C04B
:102A8000C5F80CC0C5F848C0C5F84CC021460122A5
:102A900048480BF0B9F809F5D07307F1840C0AF532
:102AA000D872019344484549454B03934035583704
:102AB000CDE90425CDE9067CCDF80080089002918F
:102AC0000823072201213F483F4D404F0BF09CF85F
:102AD0003F4B404A404941481C609C80DFF808E178
:102AE000DFF808C19E814FF0200A4FF04009802492
:102AF000A3F814800426A3F854A04FF00808A3F804
:102B00006490A3F86C404FF010094FF4004A4FF462
:102B100000744FF4807BA3F87CB0996019619961CF
:102B2000196299639E839E86A3F82480A3F844804B
:102B30009D629D651D67A3F82C90A3F84C901A63C5
:102B40001A649A641A651A669A669A67A3F83CA092
:102B5000A3F874A0A3F85C40C3F88020C0E900EC9F
:102B6000A3F88440876013B0BDE8F08F01231C4DAB
:102B7000C3F10103382404FB0354AC4210D128F004
:102B8000F9F90023174DC3F10103502404FB03544A
:102B9000AC42F4D054F8503D1B6820469847F7E704
:102BA00054F8383D1B6820469847E6E70123E9E7DB
:102BB0000023DCE7D00F00207C8C0020DC9000207C
:102BC000804E002080120020000802400300040014
:102BD000848B0020000402400000024090900020FE
:102BE000148B00208C8C002028EA002001000200B9
:102BF00030B5014689B000222D2002F0D7FB2D20F0
:102C000002F00CFC0025164B02951A6C154C42F490
:102C100080721A641B6C03F4807301A9029303A8E9
:102C2000029B04F081FF04F05FFF0F4A0F4925610A
:102C30004300A2FB03239B0C013B40F2E7322046FA
:102C4000C4E901352160E26005F0A0FD10B101206A
:102C500009B030BD204605F035FB09B030BD00BFDE
:102C60000038024074E9002083DE1B43002000404E
:102C700030B51848184B03608DB04FF6FF72002333
:102C800001240325C26003A90422C0E901330361C2
:102C90000493069308930A93039505940994079265
:102CA0000B9205F0E3FD48B900230A4801A9CDE9DC
:102CB000013305F0DDFF30B90DB030BD0748D82134
:102CC00000F0E0FBF0E70548DF2100F0DBFB0DB092
:102CD00030BD00BF64EA0020000400402CE303087C
:102CE00030B51848184B03608DB04FF6FF720023C3
:102CF00001240325C26003A90422C0E90133036152
:102D00000493069308930A930395059409940792F4
:102D10000B9205F0ABFD48B900230A4801A9CDE9A3
:102D2000013305F0A5FF30B90DB030BD0748F921DA
:102D300000F0A8FBF0E705484FF4807100F0A2FB1B
:102D40000DB030BDECE90020000800402CE3030882
:102D500010B52248224B036086B000234FF0FF32AB
:102D6000C0E90133C260036105F064FDE8B90023E6
:102D70001A486946CDE9003305F07AFF40BB0A22C4
:102D8000012000240F230292039002A91348082275
:102D9000CDE9044305F0FAFDA0B9104802A90C22C0
:102DA00005F0F4FD38B906B010BD0E4840F211111F
:102DB00000F068FBDBE70B484FF4937100F062FB17
:102DC00006B010BD074840F2211100F05BFBE4E7BC
:102DD00004484FF48C7100F055FBD0E728EA00203E
:102DE000000C00402CE303080A4808B50A4B0360B6
:102DF00042F603120023C0E90133C260036105F00B
:102E0000C5FC00B908BDBDE80840044840F2731194
:102E100000F038BBA0EA0020001C00402CE30308AF
:102E2000124A0368934282B012D0114A934201D0F1
:102E300002B070470F4B002201921A6C42F08002E0
:102E40001A641B6C03F080030193019B02B070476E
:102E5000084B002200925A6C42F001025A645B6CEB
:102E600003F001030093009B02B070470000014093
:102E7000001C0040003802400368B3F1804F82B06C
:102E800012D0114A934201D002B070470F4B00227A
:102E900001925A6C42F002025A645B6C03F0020326
:102EA0000193019B02B0704703F50E33002200929C
:102EB0001A6C42F001021A641B6C03F001030093C8
:102EC000009B02B0704700BF000401400038024080
:102ED000124A0368934282B012D0114A934201D041
:102EE00002B070470F4B002201921A6C42F00402AC
:102EF0001A641B6C03F004030193019B02B070473A
:102F0000084B002200921A6C42F002021A641B6CF9
:102F100003F002030093009B02B0704700040040DE
:102F200000080040003802400E4B02689A4200D070
:102F3000704700B583B0002203F50B330192196C82
:102F400041F0080119641B6C03F00803019301218F
:102F50003220019B02F02AFA322003B05DF804EB24
:102F600002F05CBA000C004070B5294A0368934235
:102F700086B007D0B3F1804F1FD0264A93422CD0A1
:102F800006B070BD4FF46043234801A90226002417
:102F90000125CDE90136CDE90344059502F084FE13
:102FA0001E4801A94FF4E063CDE90264CDE9044570
:102FB000019302F079FE06B070BD0023012216488D
:102FC00005924FF44065022401A9CDE90154CDE9F1
:102FD000033302F069FE06B070BD802303250F485D
:102FE000059501A902260024CDE90136CDE9034467
:102FF00002F05AFE0848059501A9CDE90156CDE930
:10300000034402F051FE064801A94FF4E073CBE7F8
:1030100000000140000401400004024000000240A2
:103020000008024030B55248524B036095B000236F
:10303000602440F6AC510222C0E902414261436083
:10304000036105F0A3FB00285BD14FF4805348488F
:10305000029302A905F0C4F9002840F08380444897
:1030600005F0CCFB002878D1414805F0ABFB0028E7
:103070006ED1202200233E486946CDE9002305F0A9
:10308000F7FD00285FD1002270233948069306A976
:10309000CDE90722CDE90922CDE90B2205F06CFD2F
:1030A00000284BD13248042206A905F065FD00280E
:1030B0003FD12F48082206A905F05EFD002833D134
:1030C00000232B48069306A90C2205F025FD30BBF2
:1030D0004FF4006000234FF4806514244FF4005235
:1030E0000D900DA922481193CDE90E53139310941E
:1030F000129205F0E3FD48B91D48FFF735FF15B002
:1031000030BD1D48532100F0BDF99EE792211A48B9
:1031100000F0B8F91648FFF727FF15B030BD164884
:10312000862100F0AFF9D3E71348802100F0AAF917
:10313000C6E711487B2100F0A5F9BAE70E487621D1
:1031400000F0A0F9AEE70C486A2100F09BF99AE77D
:103150000948632100F096F98BE707485E2100F0EB
:1031600091F981E70448592100F08CF977E700BF15
:10317000DCEA0020000001402CE3030810B52648DB
:1031800000238AB04FF0804460214FF48052C0E9A0
:10319000021204604360036105F030FB20BB002392
:1031A0001D4801A9CDE9013305F062FD78BB70200F
:1031B00000230224039003A91748049308220793CD
:1031C000059405F0D9FCE8B941F201040023124846
:1031D00003A90C22CDE9044305F0CEFC48B90E4802
:1031E000FFF7C2FE0AB010BD0C48A52100F04AF955
:1031F000D5E7BC21094800F045F90748FFF7B4FEC0
:103200000AB010BD0548B52100F03CF9DCE70348E1
:10321000AC2100F037F9CAE718EB00202CE30308D3
:1032200030B53C483C4B036091B00023602440F62D
:10323000AC510222C0E9024142614360036105F0E2
:10324000DDFA00283ED12022002332486946CDE92C
:10325000002305F00DFD002856D1002270232D48D3
:10326000029302A9CDE90322CDE90522CDE9072287
:1032700005F082FC002841D12648042202A905F06D
:103280007BFC002834D1234802A9082205F074FCF5
:1032900040BB4FF4006000234FF4806514244FF4CA
:1032A0000052099009A91B480D93CDE90A530F93C9
:1032B0000C940E9205F002FD50B91648FFF754FE2B
:1032C00011B030BD154840F2391100F0DBF8BAE713
:1032D0004FF4B171114800F0D5F80E48FFF744FEE5
:1032E00011B030BD0D484FF4AB7100F0CBF8D0E712
:1032F0000A4840F2511100F0C5F8C4E707484FF4FE
:10330000A67100F0BFF8B7E704484FF4A07100F0D1
:10331000B9F8A2E7B0E90020000401402CE303085B
:1033200000B583B0234B00220092196B41F40011C9
:103330001963196B01F40011009100990192196B46
:1033400041F4800119631B6B03F480030193042192
:103350000B20019B02F02AF80B2002F05FF80022FC
:103360000A210D2002F022F80D2002F057F8002269
:103370000A210F2002F01AF80F2002F04FF8002265
:103380000A21102002F012F8102002F047F8002263
:103390000A21112002F00AF8112002F03FF8002261
:1033A00003212F2002F002F82F2003B05DF804EB78
:1033B00002F034B80038024070B594B0294A2A4B64
:1033C00000200190116C41F080511164126C02F0E8
:1033D00080520192019A02901A6842F480421A6067
:1033E0001B6803F48043029309224FF480330120C9
:1033F00002244FF48001042508920993A822072390
:103400000D9008A8CDE90F15029E0E94129411920A
:10341000139304F0D9F800B1FEE74FF4A0524FF433
:10342000805305900F26052103A80494CDE90623B7
:10343000039604F0B9FA044600B1FEE704F04EFB2F
:103440000A4AA2FB0023980902F00AF8284602F073
:1034500021F8224631464FF0FF3001F0A7FF14B0AB
:1034600070BD00BF0038024000700040D34D6210B4
:10347000034B02689A4200D0704701F07DB800BF4C
:1034800000200040FEE700BF0368B3F1A04F00D06A
:10349000704730B587B04FF4C050002403220A2390
:1034A00001A9019002251048CDE90423CDE9025479
:1034B00002F0FAFB0D4B5A6B42F080025A63009403
:1034C0005A6C42F480425A645B6C03F48043224697
:1034D000009306214320009B01F068FF432001F088
:1034E0009DFF07B030BD00BF000002400038024021
:1034F00070B5D0F8EC5382B005F2AA2600F56F71D2
:1035000004463046019108F0D7FE95F8AA32019999
:1035100003F06003402B03D195F8AB32502B06D05B
:10352000D4F8EC0302B0BDE8704008F02DBBD5F82C
:10353000B832B5F8B0229B68C5F89822012231460E
:10354000C5F8942228469847B5F8B03203B908B1B7
:1035500002B070BD284602B0BDE8704008F01EBF42
:10356000C1EBC10300EB8303D0F8EC03D3F80422D2
:1035700008F03ABBC1EBC10300EB8303D0F8EC03C6
:103580005A6C08F067BB00BFD0F8EC0308F0FABB38
:1035900010B5C16804460039D0F8EC0318BF01210A
:1035A00008F0D8FBD4F8EC03BDE8104008F0AABB43
:1035B00010B50446D0F8EC0308F0D0FB2268D2F82E
:1035C000003E43F00103C2F8003E236A23B1034AE0
:1035D000136943F00603136110BD00BF00ED00E066
:1035E000D0F8EC0308F0C4BBD0F8EC0308F0DABB69
:1035F000D0F8EC0308F0D4BBD0F8EC0308F0D4BB4F
:10360000D0F8EC0308F0D2BB02780AB10020704772
:1036100038B5194B0221C3F8EC034FF0A04506243E
:10362000C0F8C4321846C3E90422C3E90722C3E93B
:103630000B22C3E900545A62D960996103F0DAFAA7
:10364000A0B980210C4803F0BBFF402200210A48AA
:1036500003F090FF40220121074803F08BFF402236
:103660000321054803F086FF002038BD034840F2DF
:103670005911FFF707FFE4E758EB002044E3030884
:1036800008B5D0F8C40203F021FB032896BF024B13
:103690000320185C08BD00BF60E3030810B51446A2
:1036A000D0F8C4021A46234603F046FE032896BF0C
:1036B000014B0320185C10BD60E3030808B5D0F887
:1036C000C40203F079FE032896BF024B0320185C66
:1036D00008BD00BF60E3030808B5D0F8C40203F0DA
:1036E000F1FE032896BF024B0320185C08BD00BF03
:1036F00060E3030808B5D0F8C40203F013FF032801
:1037000096BF024B0320185C08BD00BF60E30308AE
:103710000A06D0F8C43206D4C1EBC10103EB810123
:1037200091F8FA01704701F07F01C1EBC10103EB91
:10373000810191F83A00704708B5D0F8C40203F04F
:10374000E9FD032896BF024B0320185C08BD00BFAB
:1037500060E3030808B5D0F8C40203F08FFE032825
:1037600096BF024B0320185C08BD00BF60E303084E
:1037700008B5D0F8C40203F04FFE032896BF024BF1
:103780000320185C08BD00BF60E3030808B5D0F84B
:10379000C40203F069FE08BD114838B5114B03603F
:1037A0004FF4827201234FF400654FF40074182126
:1037B000426043610A220023C0E90641C0E90833A0
:1037C000C560C26283600361836204F01BFA00B9C2
:1037D00038BDBDE8384004485221FFF753BE00BF52
:1037E00048EF0020003C004064E303083B4B0268C4
:1037F0009A4200D07047F0B587B0002503F5FE333C
:1038000000951A6C42F400421A641B6C03F40043E6
:10381000009302234FF4A052CDE90233009E01929F
:1038200006230126044601A92D48CDE904634FF47F
:10383000006702F039FA2A48039601A9294E019738
:1038400002F032FAE3682848756040214FF4806244
:10385000F5603060B16032614BBBC6E905330023CF
:103860004FF400321F48F361C6E9082301F01EFE41
:1038700070BB1E4DE2681E48A66400234FF48061B1
:10388000C5E90133B46328602961EB60A2B9C5E9D9
:10389000052200234FF480321448EB61C5E9082368
:1038A00001F004FE78B9E564AC6307B0F0BD4FF4F5
:1038B0000053C6E90573D2E74FF400624FF400539A
:1038C000C5E90523E5E70B48A021FFF7DBFDEAE7A3
:1038D00008488921FFF7D6FDCBE700BF003C004038
:1038E00000080240A0EF0020B860024000F0002075
:1038F0001060024064E303080D4B02689A4200D056
:1039000070470C4A136C10B523F40043044613644B
:103910004FF4E051084802F0EFFAA06C01F060FEAD
:10392000E06C01F05DFEBDE81040332001F084BD85
:10393000003C004000380240000802400A4808B538
:103940000A4B03600C220023C0E90233C0E90633AE
:103950004261036105F03CFB00B908BDBDE80840C9
:1039600003485121FFF78EBD80F10020004C00403C
:1039700078E303080A4808B50A4B03600C220023C9
:10398000C0E90233C0E906334261036105F020FB60
:1039900000B908BDBDE8084003486421FFF772BDC7
:1039A000C0F100200044004078E3030870B5584A95
:1039B0000368934282B0044604D0564A93424BD0E7
:1039C00002B070BD002302F5F6320093116C524E26
:1039D0005248B36041F400211164126CF36002F4A8
:1039E00000220092C6E90533C6E908334FF00061B2
:1039F0004FF480624FF4807330603046009D7160F8
:103A00003261F36101F052FD002872D1444D454806
:103A100066634FF0006340214FF4806228606B6062
:103A200028460023C5E90332C5E90533C5E9073354
:103A3000B463A9606B6201F039FD002854D125639D
:103A400000220A213420AC6301F0B0FC342002B023
:103A5000BDE8704001F0E2BC002302F5FA320193A8
:103A6000116C314E3148B36041F400311164126C75
:103A7000F36002F400320192C6E90533C6E9083367
:103A80004FF000614FF480624FF480733060304635
:103A9000019D71603261F36101F008FD70BB244D3E
:103AA000244866634FF0006340214FF48062286031
:103AB0006B6028460023C5E90332C5E90533C5E933
:103AC0000733B463A9606B6201F0F0FCD8B92563D9
:103AD00000220A212620AC6301F068FC262002B0F7
:103AE000BDE8704001F09ABC13489421FFF7CAFC6E
:103AF000A5E711488221FFF7C5FC87E70E48B621EC
:103B0000FFF7C0FCCBE70C48C821FFF7BBFCDEE7A2
:103B1000004C00400044004060F000204060024043
:103B200000F2002070600240C0F000208860024077
:103B300020F10020A060024078E3030808B509687E
:103B400026F0B4FF002008BD08B5044B0022186819
:103B5000022107F061FE002008BD00BF98D60020BA
:103B600008B5044B00221868012107F055FE00201B
:103B700008BD00BF98D60020212801D00020704742
:103B8000002310B40120C22408224C7088705DF814
:103B9000044B0B700020CB700B714B718A71704716
:103BA00040290FD80A4B812AD3F8BC320ED0832A81
:103BB00008D15C331B7A3BB913460A4601460448D8
:103BC00008F08ABD03207047012070474433F1E7B5
:103BD00098F5002030B52448244B25490360012284
:103BE00000238FB04FF480344460816283600361AE
:103BF00083610362C362C3600363C261426100F018
:103C0000DFFC08BB0624012200231748039301A907
:103C1000CDE9014200F04AFE08BB06200023012244
:103C20004FF480154FF48034059005A90E48069294
:103C3000CDE90A33CDE90C4509920793089300F0CA
:103C4000DDFE30B90FB030BD0A485E21FFF71AFC27
:103C5000D8E708487821FFF715FC0FB030BD0548BC
:103C60006821FFF70FFCD8E7A8F2002000200140F0
:103C70000100000F90E3030830B52648264B03608F
:103C80004FF4803200238FB04FF080544FF06061CA
:103C900042600122C0E90A14836003618361036208
:103CA000C3600363C261426100F08AFC08BB0D245B
:103CB000012200231748039301A9CDE9014200F036
:103CC000F5FD08BB0A20002301224FF480154FF4B4
:103CD0008034059005A90F480692CDE90A33CDE955
:103CE0000C4509920793089300F088FE30B90FB095
:103CF00030BD0A489221FFF7C5FBD8E70748AC2141
:103D0000FFF7C0FB0FB030BD04489C21FFF7BAFBA2
:103D1000D8E700BF60F200200021014090E30308D3
:103D200030B52648264B03604FF4803200238FB015
:103D30004FF080544FF0606142600122C0E90A14E4
:103D40008360036183610362C3600363C261426194
:103D500000F036FC08BB0C24012200231748039313
:103D600001A9CDE9014200F0A1FD08BB0B20002311
:103D700001224FF480154FF48034059005A90F48B7
:103D80000692CDE90A33CDE90C45099207930893D1
:103D900000F034FE30B90FB030BD0A48C621FFF73D
:103DA00071FBD8E70748E021FFF76CFB0FB030BD8F
:103DB0000448D021FFF766FBD8E700BFF0F20020EF
:103DC0000022014090E30308F0B5424A03689342A1
:103DD00089B007D0404A93423FD0404A93425BD0DB
:103DE00009B0F0BD00263E4B00965A6C3D4D42F4A2
:103DF00080725A645B6C059603F48073009303270A
:103E00002F2303A904463848009A0393049701F02E
:103E10004BFF70233548039303A9CDE9047601F0E5
:103E200043FF334828604FF480674FF400614FF43C
:103E300000524FF480732846C5E90266C5E908665A
:103E4000C5E90471C5E906236E6001F02FFB002867
:103E500039D1A563AC6309B0F0BD0024204B0194B7
:103E60005A6C214842F400725A645B6C059403F466
:103E70000073019303A92F230325CDE90335019A8C
:103E800001F012FF70231948039303A9CDE90454EC
:103E900001F00AFF09B0F0BD114B13480021029157
:103EA0005A6C42F480625A645B6C059103F480633F
:103EB00002930F22032303A9CDE90323029C01F0FF
:103EC000F3FE09B0F0BD0B484FF48A71FFF7DAFA40
:103ED000BFE700BF00200140002101400022014057
:103EE0000038024038F30020000802400000024081
:103EF0001064024090E3030810B582B00024224B06
:103F000000945A6C42F480425A645A6C02F4804223
:103F10000092009A01941A6C42F080521A641B6C51
:103F200003F0805301930320019B01F02BFA2246FA
:103F300021466FF00B0001F039FA224621466FF05E
:103F40000A0001F033FA224621466FF0090001F021
:103F50002DFA224603216FF0040001F027FA2246D1
:103F600021466FF0030001F021FA22460F216FF085
:103F7000010001F01BFA22460F214FF0FF3002B082
:103F8000BDE8104001F012BA003802401223014887
:103F90000B80704798040020042301480B80704771
:103FA000AC04002010B5044C04480A46214608F031
:103FB000A3F9204610BD00BF98F30020A4E3030836
:103FC00010B5044C04480A46214608F095F92046ED
:103FD00010BD00BF98F3002088D9002010B5044C14
:103FE00004480A46214608F087F9204610BD00BF64
:103FF00098F30020B4E3030810B5044C04480A46C3
:10400000214608F079F9204610BD00BF98F3002042
:10401000D0E3030810B5044C04480A46214608F0D2
:104020006BF9204610BD00BF98F30020DCE30308C5
:104030000020EE2908B5108002D0062905D008BD61
:104040001346122204481A8008BD0449044808F0A7
:1040500053F9024808BD00BFB004002098F30020C7
:10406000ECE30308704700BF70B41B4C1B49636C42
:104070001B4A1C4D23F4404363644B6CD0E900643D
:104080008FB023F440434B648168C3680296039465
:1040900004910593D0E906130669446906960794CE
:1040A00008910993936A0A93D2F888300B936B684E
:1040B0000C930A9BC3F340238DF806300A9B012220
:1040C000C3F300238DF807300D920D9B002BFCD11C
:1040D0000FB070BC704700BF0000014000040140F9
:1040E00000ED00E030EF00E01EF0040F0CBFEFF336
:1040F0000880EFF30980FFF7B7BF00BF0549064A04
:104100004B6C23F440434B64536C23F4404353649F
:10411000F6E700BF000001400004014008B5FFF7CA
:10412000EDFF00BF08B5FFF7E9FF00BF704700BF14
:1041300007F0E2BB014801F02BBB00BF00F00020FC
:10414000014801F025BB00BF60F00020014801F0EC
:104150001FBB00BF00F20020014801F019BB00BFE7
:10416000C0F00020014801F013BB00BF20F1002087
:10417000014801F00DBB00BFA0EF0020014800F096
:10418000D7BF00BFC4040020FFF7F8BFFFF7F6BF9A
:10419000FFF7F4BF014805F0A9B800BFC0F1002047
:1041A00008B5044804F0E8F9BDE80840024804F006
:1041B000E3B900BFB0E9002074E90020014803F032
:1041C00075BF00BF48EF0020014805F08FB800BF61
:1041D00080F1002010B5094C09490022204607F063
:1041E00093FC0849204607F0A7FC2046064908F042
:1041F0006BFA2046BDE8104007F0B4BC98F50020EB
:104200007C040020F404002068040020214B026894
:104210009A4200D0704770B586B0002403F5EA33A7
:1042200000941A6C1C4842F000721A641B6C0394D0
:1042300003F000734FF44071092500930222032319
:10424000019101A9CDE904350292009E01F02CFDF7
:1042500022462946132001F0A9F8132001F0DEF8C8
:1042600022462946142001F0A1F8142001F0D6F8C6
:1042700022462946152001F099F8152001F0CEF8C4
:1042800022462946162001F091F8162001F0C6F8C2
:1042900006B070BD00640040000402401049114B9C
:1042A000D1F8882042F4700210B4C1F888201A684E
:1042B0000D4C002042F001021A6098601A6822F04A
:1042C000847222F480321A605C601A684FF00064D5
:1042D00022F480221A60D8608C605DF8044B70472D
:1042E00000ED00E0003802401030002410B586B028
:1042F0000E4B0F48002400941A6B42F001021A631F
:104300001B6B03F00103009301220421009B01F0C9
:104310009DFE0422012306480DEB0201CDE9034472
:10432000CDE9012301F0C0FC06B010BD0038024009
:1043300000000240F0B58BB0344B354E354F0024B1
:1043400000941A6B42F004021A631A6B02F0040222
:104350000092009A01941A6B42F080021A631A6B61
:1043600002F080020192019A02941A6B42F001025B
:104370001A631A6B02F001020292029A03941A6BFA
:1043800042F002021A631A6B02F002020392039ACD
:1043900004941A6B42F008021A631B6B03F00803C3
:1043A0000493304601224FF4C041049B01F04EFEBD
:1043B000224638464FF4805101F048FE0125304630
:1043C00005A94FF4C043CDE90535CDE9074401F017
:1043D0006BFC304605A948F210230593CDE906444D
:1043E00001F062FC384605A94FF480530593CDE9EE
:1043F0000654089401F058FC04230748059305A9C6
:10440000CDE9064501F050FC0BB0F0BD003802408C
:104410000008024000040240000C024038B50D4B79
:104420000D4A0E4D1A60410000224FF48044184698
:10443000C3E90522C3E90722D9605D601C619A6067
:1044400001F008FE00B938BDBDE8384004484F21EE
:10445000FFF718B8C8F8002000540040A0860100FB
:1044600020E40308304B02689A4200D0704770B5D0
:1044700082B000232D4A0193116C2D4E41F400119E
:10448000B3601164126CF36002F400120446294810
:104490000192C6E90533C6E908334FF000714FF4C5
:1044A00080624FF4807330603046019D71603261EC
:1044B000F36100F0FBFF60BB1F4D2048A6634FF087
:1044C000007340214FF4806228606B60284600230F
:1044D000C5E90332C5E90533C5E90733B463A9600B
:1044E0006B6200F0E3FFC8B96563002209211F2059
:1044F000AC6300F05BFF1F2000F090FF0022092159
:10450000202000F053FF202002B0BDE8704000F0F2
:1045100085BF0B486E21FEF7B5FFCDE70848802127
:10452000FEF7B0FFE0E700BF005400400038024053
:104530001CF900201060024068F80020A0600240D2
:1045400020E4030808B50B4B1A6842F400721A60A5
:104550001A6842F480621A601A6842F480721A6023
:10456000032000F00FFF0620FEF742FBFFF7C4FC1C
:10457000002008BD003C0240034A044B11681B7830
:104580000B441360704700BF7CF90020F00400204A
:10459000014B1868704700BF7CF9002038B504460D
:1045A000FFF7F6FF631C054602D0044B1B781C4442
:1045B000FFF7EEFF431BA342FAD338BDF0040020FF
:1045C000002800F09E80F8B5036C04463BB1236CD4
:1045D000DB060CD5002384F83C300120F8BD436491
:1045E00080F83C30FFF7F0FB236CDB06F2D4226C42
:1045F00047492368474D22F4885222F0020242F0D4
:10460000020222644A6822F440324A604A686068C2
:1046100002434A6058682169A768E66820F4807000
:1046200058605A6842EA01225A60586820F0407087
:1046300058605968A06A39435960996821F400614B
:1046400099609A68A84242EA06029A6050D0996836
:10465000E56A21F0706199609A68104398609968E2
:1046600021F0405199609A682A439A609968A56937
:10467000206A21F0020199609A6842EA45029A6034
:104680005A6800283FD042F40062616A5A605A6852
:1046900022F460425A605A68013942EA41325A6053
:1046A000DA6AE569276B666922F47002DA62D86A11
:1046B000013D40EA0550D862986820F40070986087
:1046C000996841EA47219960996821F4806199606D
:1046D0009A68002042EA86229A606064236C23F084
:1046E000030343F001032364002384F83C30F8BD46
:1046F0009A6822F070629A609A6822F040529A603A
:10470000B4E70120704722F400625A60C8E700BF96
:10471000002301400100000FF0B5054690F83C0071
:1047200083B000240128019468D001232E6885F805
:104730003C30B368DC0714D4324B334C1868B36890
:10474000A4FB0040800C43F0010300EB4000B36089
:104750000190019B2BB1019C013C01940198002820
:10476000F9D1B368D8073CD5286C20F4E06020F07C
:10477000010040F48070286473685B0505D52B6CDC
:1047800023F4405343F480532B642B6CA86B1F4CD1
:1047900013F480531CBF6B6C23F006036B6400277B
:1047A0001B4B85F83C70C46303641A4CC4646FF0FF
:1047B00022033360736843F080637360B46844F429
:1047C00080741346B4600A4606F14C0100F044FFC1
:1047D000114B5B6813F01F0F2B6805D00F4A9342F3
:1047E00002D0002003B0F0BD986810F04050F8D11E
:1047F0009A6842F080429A6003B0F0BD022003B094
:10480000F0BD00BFEC04002083DE1B4325480008F8
:104810008548000895480008002301400020014019
:10482000704700BF836B1A6C12F0500F25D11A6CC1
:10483000196842F4007210B51A648A6812F0405F79
:1048400017D19A69AAB9CA6A12F4700F02D08A689D
:1048500050050ED44A6822F020024A601A6C22F4F5
:1048600080721A641A6CD20403D41A6C42F00102EA
:104870001A641846FFF7D4FF10BD9B6BDB6C18471A
:10488000704700BF08B5806BFFF7FAFF08BD00BF97
:10489000704700BF806B08B540230364436C43F04E
:1048A00004034364FFF7F4FF08BD00BFF0B490F8C1
:1048B0003C3082B00022012B019200F09480012351
:1048C00080F83C300D68092D29D804688B6822696E
:1048D00005EB45070726BE4022EA0602226122694F
:1048E000BB40134323614B68062B2E462CD803EBA9
:1048F0008303626B053B1F21994022EA0102626338
:10490000626B06FA03F313436363394B9C422FD067
:10491000002380F83C30184602B0F0BC70470468B1
:104920008B68E768AEB206EB46021E3A4FF0070C02
:104930000CFA02FC27EA0C07E760E76893403B4368
:10494000E3604B68062BD2D90C2B37D803EB8303DB
:10495000A3F123011F22236B8A4023EA020323636E
:10496000236B06FA01F11943214B21639C42CFD1FD
:10497000122D32D0A5F11003012BC9D81D4A53685E
:10498000102D43F400035360C2D11B4B02F1467259
:104990001B6802F52E3202F28332A2FB03239B0C2A
:1049A00003EB83035B000193019B002BB0D0019BC1
:1049B000013B0193019B002BF9D1A9E703EB830293
:1049C000413AE36A1F21914023EA0103E362E36A6B
:1049D00006FA02F11943E16297E7064A536843F485
:1049E0008003536094E7022002B0F0BC704700BF20
:1049F0000020014000230140EC040020F0B590F8B5
:104A00003C30CF69012B00F0D980012380F83C3085
:104A10000E68092E70D803688A681C6906EB460C7C
:104A2000072505FA0CF524EA05041C611C6902FA45
:104A30000CF222431A6134469A6BD1F810E04D68AB
:104A400022F440129A639A6B0EF1FF3C42EA0C5C2E
:104A5000EA1CA2EB0E02C3F838C0D2B2D3F838C0B9
:104A600002EB82024FF01F0E0EFA02FE2CEA0E0C31
:104A7000C3F838C0D3F838E0DFF84CC104FA02F2CA
:104A800042EA0E0267459A6372D09C68D1F820C052
:104A900024F470249C609A6817439F609C6824F4F7
:104AA00040149C609A6842EA0C029A608A69002A63
:104AB00039D05A6842F480625A604A69002A39D073
:104AC0005A68022D42F480525A6039D0032D63D0C7
:104AD000012D56D01A6AC96822F47F6222F00F02B3
:104AE0001A621A6A0A431A62354A934235D0002381
:104AF00080F83C301846F0BD03688A68D3F80CC0D3
:104B0000B4B204EB44051E3D4FF0070E0EFA05FE4D
:104B10002CEA0E0CC3F80CC0D3F80CC0AA4042EA31
:104B20000C02DA6088E75A6822F480625A604A69A7
:104B3000002AC5D15A68022D22F480525A60C5D18C
:104B40009A69C96822F47F6222F00F029A619A6919
:104B50000A439A611A4A9342C9D1122E27D0103EB5
:104B6000012EC4D8174A536843F400035360BEE7CC
:104B70009A6822F470229A609A6822F440129A602D
:104B800094E75A69C96822F47F6222F00F025A61E1
:104B90005A690A435A61A7E7DA69C96822F47F6251
:104BA00022F00F02DA61DA690A43DA619CE7D2F88F
:104BB000043343F48003C2F8043398E70220F0BDC5
:104BC000002001400023014001000F0000287CD09C
:104BD00038B590F820300446002B73D02268136853
:104BE00023F002031360FFF7D3FC054604E0FFF750
:104BF000CFFC431B0A2B5CD823685A689107F6D474
:104C00001A6842F001021A60FFF7C2FC054604E090
:104C1000FFF7BEFC401B0A284BD823685A68D2070E
:104C2000F6D5227E012A1A680CBF42F0800222F0DB
:104C300080021A60627E012A1A680CBF42F04002AC
:104C400022F040021A60A27E012A1A680CBF42F0CC
:104C5000200222F020021A60E27E012A1A680CBFAC
:104C600022F0100242F010021A60227F012A1A6814
:104C70000CBF42F0080222F008021A60627F012A8B
:104C80001A680CBF42F0040222F004021A60D4E950
:104C90000221D4E904500A4361682A4302430139DE
:104CA0000A4301250021DA61616284F82050084638
:104CB00038BD636A052243F40033636284F8202020
:104CC000012038BDFFF7A2FA88E70120704700BF36
:104CD00090F82030012B09D090F82030022B05D01D
:104CE000436A43F480234362012070473B4BD3F86F
:104CF000002242F00102F0B4C3F80022D3F80022EF
:104D000022F47C52C3F80022D3F80022486A42EA17
:104D10000022C3F800224A69D3F81C4201209040C7
:104D200024EA0004C3F81C42CD69C443002D45D1D8
:104D3000D3F80C522540C3F80C52D200CF688D88AE
:104D40008E680B8802F1804202F5C84245EA0745A9
:104D500043EA0643C2F84052C2F844328B691F4A04
:104D600033BBD2F804322340C2F804320B69C3B912
:104D70001A4BD3F814221440C3F814420B6A012BC7
:104D800005D1164AD2F81C321843C2F81C02134A45
:104D9000D2F8003223F001030020F0BCC2F8003248
:104DA00070470E4AD2F814320343C2F81432E5E7D2
:104DB000D2F804320343C2F80432D7E7012DCDD133
:104DC000D3F80C520543C3F80C52D2000F688D88FB
:104DD0008E688B8902F18042B6E700BF0064004014
:104DE00070B590F82030012B044606D0436A0126A6
:104DF00043F400234362304670BD0268DEB20223F2
:104E000080F82030136823F001031360FFF7C0FB24
:104E1000054604E0FFF7BCFB431B0A2B08D82368B8
:104E20005B6813F00103F5D11E466362304670BD26
:104E3000636A052243F40033636284F8202030461D
:104E400070BD00BF38B590F82030022B044605D065
:104E5000436A43F480134362012038BD026813683B
:104E600043F001031360FFF793FB054604E0FFF7EF
:104E70008FFB431B0A2B0CD823685A68D207F6D540
:104E80001A68012122F002021A6084F82010002022
:104E900038BD636A052243F40033636284F820203E
:104EA000012038BD70B490F82040012C0AD090F851
:104EB0002040022C06D0436A43F48023436270BC36
:104EC000012070470468A5686D0105D4A5682E010E
:104ED00002D4A568ED0039D5A0680125C0F30160B2
:104EE00085401D608B6843B3CD684E682B4300F14D
:104EF00018052D0143EAC603635104EB00130D6945
:104F0000C3F88451097D01294FEA001005D1D3F877
:104F1000841141F48071C3F8841104445168C4F8C9
:104F20008C111268C4F88821D3F8802142F0010264
:104F3000002070BCC3F8802170470E68CD6800F176
:104F400018031B0145EA4655E550D6E7436A43F48A
:104F50000013436270BC0120704700BF90F82030FE
:104F6000012B05D090F82030022B01D00020704793
:104F7000036898689A689B681201C0F3806048BF14
:104F80000130DB00F3D50130704700BF2DE9F0415F
:104F900090F82050012D04460AD090F820000228F5
:104FA00006D0636A43F4802363620120BDE8F08188
:104FB000256800295AD1E86886076CD005EB0110F6
:104FC0000F01D0F8B06106F004069660002E58D1AB
:104FD000D0F8B061760D1660D0F8B0E1D0F8B4C169
:104FE000D0F8B461D0F8B4013D44CEF3400ED5F80A
:104FF000B881C6F307260CF00F05000CC2E903E5E3
:10500000C2E9050683F8008022683A44D2F8B82144
:10501000120A5A7022683A44D2F8B821120C9A70D7
:1050200022683A44D2F8B821120EDA7022683A4463
:10503000D2F8BC211A7122683A44D2F8BC21120A73
:105040005A7122683A44D2F8BC21120C9A71226833
:105050001744D7F8BC21120EDA71B9B92268D368A7
:1050600043F020030846D360BDE8F0810129A5D1B3
:1050700028698007A2D1636A43F40013084663627B
:1050800094E7D0F8B061F6085660A5E7012909D089
:105090000020BDE8F081636A43F4001363620120DD
:1050A000BDE8F0812268136943F0200313610020FA
:1050B0007CE700BF90F82030012B05D090F820301D
:1050C000022B01D000207047036819B9D86800F09E
:1050D00003007047186900F00300704790F8203013
:1050E000012B09D090F82030022B05D0436A43F4FD
:1050F000802343620120704702685369194351615C
:105100000020704790F82030012B09D090F8203013
:10511000022B05D0436A43F4802343620120704789
:105120000268536923EA010151610020704700BF02
:105130002DE9F84F03685C69D3F804809F68D3F8C1
:105140000CB0D3F810A0D3F8189014F0010605465F
:105150001ED017F0010653D1F8050BD52B684FF47C
:105160008072B9059A6000F1C0807A0540F1D8805C
:1051700046F40056F8030BD52B684FF48032B90380
:105180009A6000F1AA807A0340F1CF8046F400468D
:10519000270702D51BF0100F6DD1600703D51BF058
:1051A000080F40F09380A10704D52B68DB689A07AD
:1051B00040F08880630602D51AF0100F55D1A7067B
:1051C00002D51AF0080F64D1E00603D52B681B69DD
:1051D000990765D1A20302D518F0100F64D1E3033B
:1051E00002D518F0080F66D1270405D518F0040F72
:1051F00014D12B6804225A60002E42D1BDE8F88FEA
:1052000001229A60BB076CD47E0700F1868017F0FC
:10521000080600F095804FF480569DE7E00504D520
:1052200019F0010F18BF46F00106A10504D519F0C9
:10523000020F18BF46F00206620504D519F0040FEC
:1052400018BF46F004062305D3D519F07009D0D055
:10525000B9F1400F7FD04CD8B9F1200F6DD0B9F122
:10526000300F54D146F020064BE02B68102246F454
:1052700080661A61A3E72B68102246F40076DA6094
:105280008BE76B6A1E436E62284612F0CBFDBDE8C9
:10529000F88F2B6808221A61284612F0BDFD93E7AB
:1052A000284612F0B7FD95E72B6810225A60284671
:1052B00012F0B4FD93E72B6808225A60284612F0DA
:1052C000AFFD91E7284612F08DFD73E72B680822A9
:1052D000DA60284612F092FD65E7284612F07AFD62
:1052E00056E712F069FD002636E7284612F070FDF9
:1052F00040E7B9F1500F1DD0B9F1600F08BF46F477
:1053000080762B689A6922F070029A6172E7B9F18F
:10531000100FF6D146F00806F3E74FF400661BE7DE
:105320003B0514D546F4804624E73B030BD546F4F1
:1053300080362DE746F08006E3E746F01006E0E70A
:1053400012F04AFD08E7284612F04AFD20E72846F9
:1053500012F044FD0EE746F04006D2E7406A70477F
:1053600090F82030012B09D090F82030022B05D086
:10537000436A43F480234362012070470023436261
:10538000184670470849CA6810B400024FF6FF0477
:10539000224000F4E063134343F0BF6343F400335F
:1053A0005DF8044BCB60704700ED00E0194BDB6803
:1053B000C3F3022330B4C3F10705042D03F1040441
:1053C00028BF0425062C19D9033B4FF0FF349C401D
:1053D00022EA04024FF0FF34AC4021EA0401994074
:1053E000002841EA02010CDB00F1604000F5614059
:1053F0000901C9B280F8001330BC7047002213467F
:10540000E8E7054B00F00F0009010344C9B2197623
:1054100030BC704700ED00E0FCEC00E0002807DB4A
:1054200000F01F01034A400901238B4042F820305D
:10543000704700BF00E100E000280DDB4309074989
:105440002033012200F01F0002FA00F041F823008F
:10545000BFF34F8FBFF36F8F704700BF00E100E0D5
:105460000138B0F1807F0ED2084B10B4084C586060
:10547000F02084F823000022072110469A605DF88E
:10548000044B196070470120704700BF10E000E036
:1054900000ED00E0044A136804280CBF43F0040345
:1054A00023F004031360704710E000E0F8B50446F1
:1054B000FFF76EF8002C54D023680222002184F8F4
:1054C000341084F835201A6822F0010205461A606B
:1054D00005E0FFF75DF8431B052B3BD823681A68EE
:1054E000D107F6D4D4E90126D4E9035032436169E7
:1054F0001F682A43D4E9066502430A43206A3549F6
:1055000032432A430243606A3940042841EA0201D7
:1055100029D019605A6922F007021043DAB22E49E5
:105520005861103AA1FB020109092C4823F47F734A
:10553000415CE16523F003035F2A88BF04333F2207
:105540008A4001250021A3659A60616584F8355081
:105550000846F8BD03232022626584F835301846DA
:10556000F8BD0120F8BDD4E90B5028430143A26ADD
:105570001960586920F00700104340F00400002D26
:10558000CCD07EB1B6F5005F12D0022A03D9032A2F
:10559000C4D1EA01C2D501234022626584F83530C6
:1055A0001846F8BD012A11D032F00202B6D1F0E758
:1055B000032AB3D801A151F822F000BF9755000883
:1055C0009355000897550008CD550008B5F1C07FE8
:1055D000A4D1E0E73F8010F0ABAAAAAA34E4030804
:1055E00030B400282FD090F83530022BDCB227D011
:1055F0000368174A1C68174DD9B21039A2FB01C2C3
:10560000120924F001041C60AD5C212400221A6000
:105610005A609A60DA601A615C6123F47F7323F048
:1056200003035F2988BF04333F210022A940C565D9
:10563000836514469960426580F8342080F83520EF
:10564000204630BC70470124204630BC704700BF64
:10565000ABAAAAAA34E40308F0B490F83440866DEB
:10566000012C38D090F835400125AC4280F83450F8
:1056700005D0002380F83430F0BC02207047046865
:105680000227002580F8357045652568876825F470
:105690008025402F256063600ABFA260A160E160A1
:1056A000C16D18BFE2603F238B40026CB36023687A
:1056B00043F016032360636943F0800363611AB10A
:1056C000236843F008032360236843F00103236049
:1056D0000020F0BC70470220F0BC704770B5044653
:1056E000866DFEF755FF94F83530022B06D0002367
:1056F000802284F834306265012070BD2368216CFB
:105700001A6822F016021A605A6922F080020546D1
:105710005A6131B31A6822F008021A601A6822F03E
:1057200001021A6005E0FEF733FF431B052B0FD87B
:1057300023681B6813F00103F5D1E16D3F228A4015
:105740000121B26084F8343084F83510184670BDF9
:10575000202200230320626584F8343084F8350069
:1057600070BDA26C002AD5D1D8E700BF90F83530C3
:10577000022B03D080234365012070470268052374
:1057800080F83530136823F0010313600020704760
:105790002DE9F04182B00023866D0193C36D34681A
:1057A000714908229A4022420D68804604D001685F
:1057B0000F68780700F18A8001229A40224204D0C3
:1057C000D8F800104969090678D404229A40224288
:1057D00004D0D8F8001009688F0767D410229A40C7
:1057E000224204D0D8F800100F68380749D420228C
:1057F0009A40224217D0D8F800100C68E00612D563
:10580000B26098F83520052A73D00B6813F4802F06
:105810000B6800F09080190340F19B80D8F83C3071
:105820000BB140469847D8F854303BB3D8F85430C1
:10583000DA071BD5D8F800204C49052388F8353005
:105840001368A1FB051523F001031360AD0A02E004
:105850001368DB0704D5019B0133AB420193F7D9F1
:105860000022012388F8342088F83530D8F84C30ED
:1058700023B1404602B0BDE8F041184702B0BDE890
:10588000F081B2600A6812F4802F0A682AD1D70525
:1058900003D40A6822F008020A60D8F84020002ADF
:1058A000A5D040469047D8F85C30A0E7B260D8F861
:1058B000542042F00402C8F854208FE7B260D8F8B0
:1058C000542042F00202C8F854207EE70F6827F007
:1058D00004070F60B260D8F8542042F00102C8F803
:1058E000542069E71203D8D5D8F84820002AD8D127
:1058F0007DE70A68D8F8404022F016020A604A693B
:1059000022F080024A6154B30A6822F008020A6059
:105910003F22D8F8501002FA03F300240122B360AA
:1059200088F8344088F835200029A7D0404602B0D6
:10593000BDE8F041084713F480737FF46FAF0A6845
:10594000012422F010020A6088F8343088F83540CB
:1059500064E7D8F84430002B7FF463AF63E7D8F8EE
:105960004820002AD0D1D3E7EC040020B5814E1B9B
:105970001B4BDA68D10605D51A49CA6910200243C3
:10598000CA61D860164BDA68920606D51549CA690D
:10599000202042F00802CA61D860114BDA68500634
:1059A00006D51049CA69402042F00402CA61D86095
:1059B0000B4BDA68110606D50A49CA69802042F005
:1059C0000202CA61D860064BDA68920706D505491B
:1059D000CA69022042F02002CA61D860704700BF45
:1059E000003C024080F90020064B1A69002A01DBC6
:1059F000002070470449054A59605A601869C00F71
:105A0000704700BF003C024023016745AB89EFCDE2
:105A1000034A136943F0004313610020704700BF3D
:105A2000003C0240014BD869704700BF80F900205C
:105A3000124B70B500220446DA61FEF7A9FD104D45
:105A4000064601E0611C0DD1EB68DA03FAD4EB687D
:105A5000DB0744BF0123EB60094BD86810F0F2006C
:105A600008D170BD24B1FEF793FD801BA042EBD995
:105A7000032070BDFFF77CFF012070BD80F900207E
:105A8000003C02402DE9F8432B4E347E012C31D0EE
:105A900081461D464CF2503001230F469046337626
:105AA000FFF7C6FF18B100233376BDE8F883234B18
:105AB0001A6922F440721A611A69B9F1000F1CD0F8
:105AC000B9F1010F22D0B9F1020F2AD042F440728D
:105AD0001A611A6942F001021A61C7F800807D60FC
:105AE0004CF25030FFF7A4FF144A136923F001036E
:105AF0001361D8E70220BDE8F8831A6119695FFADB
:105B000088F241F0010119613A70E9E742F48072CC
